{
  "_format": "hh-sol-artifact-1",
  "contractName": "Marketplace",
  "sourceName": "contracts/Marketplace/Marketplace.sol",
  "abi": [
    {
      "inputs": [
        {
          "internalType": "uint256",
          "name": "_feePercent",
          "type": "uint256"
        },
        {
          "internalType": "uint256",
          "name": "_daoFeeAmount",
          "type": "uint256"
        },
        {
          "internalType": "contract HataNFT",
          "name": "_hataNFT",
          "type": "address"
        },
        {
          "internalType": "address",
          "name": "_daoContractAddress",
          "type": "address"
        }
      ],
      "stateMutability": "nonpayable",
      "type": "constructor"
    },
    {
      "inputs": [],
      "name": "Idao",
      "outputs": [
        {
          "internalType": "contract IDaoContract",
          "name": "",
          "type": "address"
        }
      ],
      "stateMutability": "view",
      "type": "function"
    },
    {
      "inputs": [
        {
          "internalType": "uint256",
          "name": "id",
          "type": "uint256"
        }
      ],
      "name": "buyNFT",
      "outputs": [],
      "stateMutability": "payable",
      "type": "function"
    },
    {
      "inputs": [
        {
          "internalType": "uint256",
          "name": "tokenId",
          "type": "uint256"
        },
        {
          "internalType": "uint256",
          "name": "price",
          "type": "uint256"
        },
        {
          "internalType": "string",
          "name": "description",
          "type": "string"
        }
      ],
      "name": "createListedToken",
      "outputs": [],
      "stateMutability": "nonpayable",
      "type": "function"
    },
    {
      "inputs": [
        {
          "internalType": "string",
          "name": "_tokenURI",
          "type": "string"
        }
      ],
      "name": "createToken",
      "outputs": [],
      "stateMutability": "nonpayable",
      "type": "function"
    },
    {
      "inputs": [],
      "name": "daoFeeAccount",
      "outputs": [
        {
          "internalType": "address payable",
          "name": "",
          "type": "address"
        }
      ],
      "stateMutability": "view",
      "type": "function"
    },
    {
      "inputs": [],
      "name": "daoFeeAmount",
      "outputs": [
        {
          "internalType": "uint256",
          "name": "",
          "type": "uint256"
        }
      ],
      "stateMutability": "view",
      "type": "function"
    },
    {
      "inputs": [
        {
          "internalType": "uint256",
          "name": "_itemId",
          "type": "uint256"
        }
      ],
      "name": "getTotalPrice",
      "outputs": [
        {
          "internalType": "uint256",
          "name": "",
          "type": "uint256"
        }
      ],
      "stateMutability": "view",
      "type": "function"
    },
    {
      "inputs": [],
      "name": "hataNFT",
      "outputs": [
        {
          "internalType": "contract HataNFT",
          "name": "",
          "type": "address"
        }
      ],
      "stateMutability": "view",
      "type": "function"
    },
    {
      "inputs": [],
      "name": "itemCount",
      "outputs": [
        {
          "internalType": "uint256",
          "name": "",
          "type": "uint256"
        }
      ],
      "stateMutability": "view",
      "type": "function"
    },
    {
      "inputs": [
        {
          "internalType": "uint256",
          "name": "",
          "type": "uint256"
        }
      ],
      "name": "items",
      "outputs": [
        {
          "internalType": "uint256",
          "name": "itemId",
          "type": "uint256"
        },
        {
          "internalType": "uint256",
          "name": "tokenId",
          "type": "uint256"
        },
        {
          "internalType": "string",
          "name": "description",
          "type": "string"
        },
        {
          "internalType": "uint256",
          "name": "price",
          "type": "uint256"
        },
        {
          "internalType": "address payable",
          "name": "seller",
          "type": "address"
        },
        {
          "internalType": "address payable",
          "name": "buyer",
          "type": "address"
        },
        {
          "internalType": "bool",
          "name": "sold",
          "type": "bool"
        }
      ],
      "stateMutability": "view",
      "type": "function"
    },
    {
      "inputs": [],
      "name": "marketplaceFeeAccount",
      "outputs": [
        {
          "internalType": "address payable",
          "name": "",
          "type": "address"
        }
      ],
      "stateMutability": "view",
      "type": "function"
    },
    {
      "inputs": [],
      "name": "marketplaceFeePercent",
      "outputs": [
        {
          "internalType": "uint256",
          "name": "",
          "type": "uint256"
        }
      ],
      "stateMutability": "view",
      "type": "function"
    },
    {
      "inputs": [
        {
          "internalType": "uint256",
          "name": "id",
          "type": "uint256"
        },
        {
          "internalType": "address",
          "name": "buyer",
          "type": "address"
        }
      ],
      "name": "setBuyer",
      "outputs": [],
      "stateMutability": "nonpayable",
      "type": "function"
    },
    {
      "inputs": [
        {
          "internalType": "uint256",
          "name": "id",
          "type": "uint256"
        },
        {
          "internalType": "uint256",
          "name": "price",
          "type": "uint256"
        }
      ],
      "name": "setPrice",
      "outputs": [],
      "stateMutability": "nonpayable",
      "type": "function"
    }
  ],
  "bytecode": "0x6101206040523480156200001257600080fd5b506040516200203d3803806200203d83398181016040528101906200003891906200021a565b8360c081815250503373ffffffffffffffffffffffffffffffffffffffff1660a08173ffffffffffffffffffffffffffffffffffffffff16815250503373ffffffffffffffffffffffffffffffffffffffff1660e08173ffffffffffffffffffffffffffffffffffffffff168152505082610100818152505080600260006101000a81548173ffffffffffffffffffffffffffffffffffffffff021916908373ffffffffffffffffffffffffffffffffffffffff1602179055508173ffffffffffffffffffffffffffffffffffffffff1660808173ffffffffffffffffffffffffffffffffffffffff1681525050505050506200028c565b600080fd5b6000819050919050565b6200014a8162000135565b81146200015657600080fd5b50565b6000815190506200016a816200013f565b92915050565b600073ffffffffffffffffffffffffffffffffffffffff82169050919050565b60006200019d8262000170565b9050919050565b6000620001b18262000190565b9050919050565b620001c381620001a4565b8114620001cf57600080fd5b50565b600081519050620001e381620001b8565b92915050565b620001f48162000190565b81146200020057600080fd5b50565b6000815190506200021481620001e9565b92915050565b6000806000806080858703121562000237576200023662000130565b5b6000620002478782880162000159565b94505060206200025a8782880162000159565b93505060406200026d87828801620001d2565b9250506060620002808782880162000203565b91505092959194509250565b60805160a05160c05160e05161010051611d49620002f46000396000610b1901526000610b670152600081816105830152610cca0152600081816109610152610b8b0152600081816104ef015281816105c001528181610a810152610b430152611d496000f3fe6080604052600436106100dd5760003560e01c8063b8a1e3771161007f578063ca7dd37511610059578063ca7dd37514610295578063de667e70146102d2578063e5733453146102fb578063f7d9757714610326576100dd565b8063b8a1e377146101fc578063bc603e0314610227578063bfb231d214610252576100dd565b806351ed8288116100bb57806351ed82881461015f578063698bae821461017b5780636bfb0d01146101a65780639fa228e3146101d1576100dd565b806322a3c9a6146100e257806338d73b0d1461010b57806345576f9414610136575b600080fd5b3480156100ee57600080fd5b5061010960048036038101906101049190610f55565b61034f565b005b34801561011757600080fd5b50610120610581565b60405161012d9190610fd3565b60405180910390f35b34801561014257600080fd5b5061015d60048036038101906101589190610fee565b6105a5565b005b61017960048036038101906101749190611037565b61064e565b005b34801561018757600080fd5b50610190610b17565b60405161019d9190610fd3565b60405180910390f35b3480156101b257600080fd5b506101bb610b3b565b6040516101c89190610fd3565b60405180910390f35b3480156101dd57600080fd5b506101e6610b41565b6040516101f391906110e3565b60405180910390f35b34801561020857600080fd5b50610211610b65565b60405161021e919061111f565b60405180910390f35b34801561023357600080fd5b5061023c610b89565b604051610249919061111f565b60405180910390f35b34801561025e57600080fd5b5061027960048036038101906102749190611037565b610bad565b60405161028c97969594939291906111d4565b60405180910390f35b3480156102a157600080fd5b506102bc60048036038101906102b79190611037565b610cc4565b6040516102c99190610fd3565b60405180910390f35b3480156102de57600080fd5b506102f960048036038101906102f49190611288565b610d27565b005b34801561030757600080fd5b50610310610d80565b60405161031d91906112e9565b60405180910390f35b34801561033257600080fd5b5061034d60048036038101906103489190611304565b610da6565b005b60008211610392576040517f08c379a0000000000000000000000000000000000000000000000000000000008152600401610389906113b6565b60405180910390fd5b6040518060e001604052808481526020018481526020018281526020018381526020013373ffffffffffffffffffffffffffffffffffffffff168152602001600073ffffffffffffffffffffffffffffffffffffffff16815260200160001515815250600160008581526020019081526020016000206000820151816000015560208201518160010155604082015181600201908161043191906115d8565b506060820151816003015560808201518160040160006101000a81548173ffffffffffffffffffffffffffffffffffffffff021916908373ffffffffffffffffffffffffffffffffffffffff16021790555060a08201518160050160006101000a81548173ffffffffffffffffffffffffffffffffffffffff021916908373ffffffffffffffffffffffffffffffffffffffff16021790555060c08201518160050160146101000a81548160ff0219169083151502179055509050507f000000000000000000000000000000000000000000000000000000000000000073ffffffffffffffffffffffffffffffffffffffff166323b872dd3330866040518463ffffffff1660e01b815260040161054a939291906116b9565b600060405180830381600087803b15801561056457600080fd5b505af1158015610578573d6000803e3d6000fd5b50505050505050565b7f000000000000000000000000000000000000000000000000000000000000000081565b60016000808282546105b7919061171f565b925050819055507f000000000000000000000000000000000000000000000000000000000000000073ffffffffffffffffffffffffffffffffffffffff1663d204c45e33836040518363ffffffff1660e01b8152600401610619929190611753565b600060405180830381600087803b15801561063357600080fd5b505af1158015610647573d6000803e3d6000fd5b5050505050565b600061065982610cc4565b9050600060016000848152602001908152602001600020905060008311801561068457506000548311155b6106c3576040517f08c379a00000000000000000000000000000000000000000000000000000000081526004016106ba906117cf565b60405180910390fd5b806003015434101561070a576040517f08c379a000000000000000000000000000000000000000000000000000000000815260040161070190611861565b60405180910390fd5b600015158160050160149054906101000a900460ff16151514610762576040517f08c379a0000000000000000000000000000000000000000000000000000000008152600401610759906118cd565b60405180910390fd5b3373ffffffffffffffffffffffffffffffffffffffff168160050160009054906101000a900473ffffffffffffffffffffffffffffffffffffffff1673ffffffffffffffffffffffffffffffffffffffff16146107f4576040517f08c379a00000000000000000000000000000000000000000000000000000000081526004016107eb90611939565b60405180910390fd5b60011515600260009054906101000a900473ffffffffffffffffffffffffffffffffffffffff1673ffffffffffffffffffffffffffffffffffffffff1663a1d27aaf6040518163ffffffff1660e01b81526004016000604051808303816000875af1158015610867573d6000803e3d6000fd5b505050506040513d6000823e3d601f19601f820116820180604052508101906108909190611b33565b84815181106108a2576108a1611b7c565b5b6020026020010151608001511515146108f0576040517f08c379a00000000000000000000000000000000000000000000000000000000081526004016108e790611c1d565b60405180910390fd5b8060040160009054906101000a900473ffffffffffffffffffffffffffffffffffffffff1673ffffffffffffffffffffffffffffffffffffffff166108fc82600301549081150290604051600060405180830381858888f1935050505015801561095e573d6000803e3d6000fd5b507f000000000000000000000000000000000000000000000000000000000000000073ffffffffffffffffffffffffffffffffffffffff166108fc8260030154846109a99190611c3d565b9081150290604051600060405180830381858888f193505050501580156109d4573d6000803e3d6000fd5b5060018160050160146101000a81548160ff021916908315150217905550600260009054906101000a900473ffffffffffffffffffffffffffffffffffffffff1673ffffffffffffffffffffffffffffffffffffffff1663ab02657f846040518263ffffffff1660e01b8152600401610a4d9190610fd3565b600060405180830381600087803b158015610a6757600080fd5b505af1158015610a7b573d6000803e3d6000fd5b505050507f000000000000000000000000000000000000000000000000000000000000000073ffffffffffffffffffffffffffffffffffffffff166323b872dd303384600101546040518463ffffffff1660e01b8152600401610ae0939291906116b9565b600060405180830381600087803b158015610afa57600080fd5b505af1158015610b0e573d6000803e3d6000fd5b50505050505050565b7f000000000000000000000000000000000000000000000000000000000000000081565b60005481565b7f000000000000000000000000000000000000000000000000000000000000000081565b7f000000000000000000000000000000000000000000000000000000000000000081565b7f000000000000000000000000000000000000000000000000000000000000000081565b6001602052806000526040600020600091509050806000015490806001015490806002018054610bdc90611405565b80601f0160208091040260200160405190810160405280929190818152602001828054610c0890611405565b8015610c555780601f10610c2a57610100808354040283529160200191610c55565b820191906000526020600020905b815481529060010190602001808311610c3857829003601f168201915b5050505050908060030154908060040160009054906101000a900473ffffffffffffffffffffffffffffffffffffffff16908060050160009054906101000a900473ffffffffffffffffffffffffffffffffffffffff16908060050160149054906101000a900460ff16905087565b600060647f00000000000000000000000000000000000000000000000000000000000000006064610cf5919061171f565b6001600085815260200190815260200160002060030154610d169190611c71565b610d209190611ce2565b9050919050565b806001600084815260200190815260200160002060050160006101000a81548173ffffffffffffffffffffffffffffffffffffffff021916908373ffffffffffffffffffffffffffffffffffffffff1602179055505050565b600260009054906101000a900473ffffffffffffffffffffffffffffffffffffffff1681565b8060016000848152602001908152602001600020600301819055505050565b6000604051905090565b600080fd5b600080fd5b6000819050919050565b610dec81610dd9565b8114610df757600080fd5b50565b600081359050610e0981610de3565b92915050565b600080fd5b600080fd5b6000601f19601f8301169050919050565b7f4e487b7100000000000000000000000000000000000000000000000000000000600052604160045260246000fd5b610e6282610e19565b810181811067ffffffffffffffff82111715610e8157610e80610e2a565b5b80604052505050565b6000610e94610dc5565b9050610ea08282610e59565b919050565b600067ffffffffffffffff821115610ec057610ebf610e2a565b5b610ec982610e19565b9050602081019050919050565b82818337600083830152505050565b6000610ef8610ef384610ea5565b610e8a565b905082815260208101848484011115610f1457610f13610e14565b5b610f1f848285610ed6565b509392505050565b600082601f830112610f3c57610f3b610e0f565b5b8135610f4c848260208601610ee5565b91505092915050565b600080600060608486031215610f6e57610f6d610dcf565b5b6000610f7c86828701610dfa565b9350506020610f8d86828701610dfa565b925050604084013567ffffffffffffffff811115610fae57610fad610dd4565b5b610fba86828701610f27565b9150509250925092565b610fcd81610dd9565b82525050565b6000602082019050610fe86000830184610fc4565b92915050565b60006020828403121561100457611003610dcf565b5b600082013567ffffffffffffffff81111561102257611021610dd4565b5b61102e84828501610f27565b91505092915050565b60006020828403121561104d5761104c610dcf565b5b600061105b84828501610dfa565b91505092915050565b600073ffffffffffffffffffffffffffffffffffffffff82169050919050565b6000819050919050565b60006110a96110a461109f84611064565b611084565b611064565b9050919050565b60006110bb8261108e565b9050919050565b60006110cd826110b0565b9050919050565b6110dd816110c2565b82525050565b60006020820190506110f860008301846110d4565b92915050565b600061110982611064565b9050919050565b611119816110fe565b82525050565b60006020820190506111346000830184611110565b92915050565b600081519050919050565b600082825260208201905092915050565b60005b83811015611174578082015181840152602081019050611159565b60008484015250505050565b600061118b8261113a565b6111958185611145565b93506111a5818560208601611156565b6111ae81610e19565b840191505092915050565b60008115159050919050565b6111ce816111b9565b82525050565b600060e0820190506111e9600083018a610fc4565b6111f66020830189610fc4565b81810360408301526112088188611180565b90506112176060830187610fc4565b6112246080830186611110565b61123160a0830185611110565b61123e60c08301846111c5565b98975050505050505050565b600061125582611064565b9050919050565b6112658161124a565b811461127057600080fd5b50565b6000813590506112828161125c565b92915050565b6000806040838503121561129f5761129e610dcf565b5b60006112ad85828601610dfa565b92505060206112be85828601611273565b9150509250929050565b60006112d3826110b0565b9050919050565b6112e3816112c8565b82525050565b60006020820190506112fe60008301846112da565b92915050565b6000806040838503121561131b5761131a610dcf565b5b600061132985828601610dfa565b925050602061133a85828601610dfa565b9150509250929050565b7f4d616b652073757265207468652070726963652069736e2774206e656761746960008201527f7665000000000000000000000000000000000000000000000000000000000000602082015250565b60006113a0602283611145565b91506113ab82611344565b604082019050919050565b600060208201905081810360008301526113cf81611393565b9050919050565b7f4e487b7100000000000000000000000000000000000000000000000000000000600052602260045260246000fd5b6000600282049050600182168061141d57607f821691505b6020821081036114305761142f6113d6565b5b50919050565b60008190508160005260206000209050919050565b60006020601f8301049050919050565b600082821b905092915050565b6000600883026114987fffffffffffffffffffffffffffffffffffffffffffffffffffffffffffffffff8261145b565b6114a2868361145b565b95508019841693508086168417925050509392505050565b60006114d56114d06114cb84610dd9565b611084565b610dd9565b9050919050565b6000819050919050565b6114ef836114ba565b6115036114fb826114dc565b848454611468565b825550505050565b600090565b61151861150b565b6115238184846114e6565b505050565b5b818110156115475761153c600082611510565b600181019050611529565b5050565b601f82111561158c5761155d81611436565b6115668461144b565b81016020851015611575578190505b6115896115818561144b565b830182611528565b50505b505050565b600082821c905092915050565b60006115af60001984600802611591565b1980831691505092915050565b60006115c8838361159e565b9150826002028217905092915050565b6115e18261113a565b67ffffffffffffffff8111156115fa576115f9610e2a565b5b6116048254611405565b61160f82828561154b565b600060209050601f8311600181146116425760008415611630578287015190505b61163a85826115bc565b8655506116a2565b601f19841661165086611436565b60005b8281101561167857848901518255600182019150602085019450602081019050611653565b868310156116955784890151611691601f89168261159e565b8355505b6001600288020188555050505b505050505050565b6116b38161124a565b82525050565b60006060820190506116ce60008301866116aa565b6116db60208301856116aa565b6116e86040830184610fc4565b949350505050565b7f4e487b7100000000000000000000000000000000000000000000000000000000600052601160045260246000fd5b600061172a82610dd9565b915061173583610dd9565b925082820190508082111561174d5761174c6116f0565b5b92915050565b600060408201905061176860008301856116aa565b818103602083015261177a8184611180565b90509392505050565b7f6974656d20646f65736e27742065786973740000000000000000000000000000600082015250565b60006117b9601283611145565b91506117c482611783565b602082019050919050565b600060208201905081810360008301526117e8816117ac565b9050919050565b7f6e6f7420656e6f75676820657468657220746f20636f766572206974656d207060008201527f7269636520616e64206d61726b65742066656500000000000000000000000000602082015250565b600061184b603383611145565b9150611856826117ef565b604082019050919050565b6000602082019050818103600083015261187a8161183e565b9050919050565b7f6974656d20616c726561647920736f6c64000000000000000000000000000000600082015250565b60006118b7601183611145565b91506118c282611881565b602082019050919050565b600060208201905081810360008301526118e6816118aa565b9050919050565b7f596f7520617265206e6f74206275796572206f662074686174204e4654210000600082015250565b6000611923601e83611145565b915061192e826118ed565b602082019050919050565b6000602082019050818103600083015261195281611916565b9050919050565b600067ffffffffffffffff82111561197457611973610e2a565b5b602082029050602081019050919050565b600080fd5b600080fd5b60008151905061199e81610de3565b92915050565b6119ad816110fe565b81146119b857600080fd5b50565b6000815190506119ca816119a4565b92915050565b6119d9816111b9565b81146119e457600080fd5b50565b6000815190506119f6816119d0565b92915050565b600060c08284031215611a1257611a1161198a565b5b611a1c60c0610e8a565b90506000611a2c8482850161198f565b6000830152506020611a40848285016119bb565b6020830152506040611a548482850161198f565b6040830152506060611a688482850161198f565b6060830152506080611a7c848285016119e7565b60808301525060a0611a90848285016119e7565b60a08301525092915050565b6000611aaf611aaa84611959565b610e8a565b90508083825260208201905060c08402830185811115611ad257611ad1611985565b5b835b81811015611afb5780611ae788826119fc565b84526020840193505060c081019050611ad4565b5050509392505050565b600082601f830112611b1a57611b19610e0f565b5b8151611b2a848260208601611a9c565b91505092915050565b600060208284031215611b4957611b48610dcf565b5b600082015167ffffffffffffffff811115611b6757611b66610dd4565b5b611b7384828501611b05565b91505092915050565b7f4e487b7100000000000000000000000000000000000000000000000000000000600052603260045260246000fd5b7f6974656d206973206e6f742076616c696420736f20796f752063616e2774206260008201527f7579206974210000000000000000000000000000000000000000000000000000602082015250565b6000611c07602683611145565b9150611c1282611bab565b604082019050919050565b60006020820190508181036000830152611c3681611bfa565b9050919050565b6000611c4882610dd9565b9150611c5383610dd9565b9250828203905081811115611c6b57611c6a6116f0565b5b92915050565b6000611c7c82610dd9565b9150611c8783610dd9565b9250828202611c9581610dd9565b91508282048414831517611cac57611cab6116f0565b5b5092915050565b7f4e487b7100000000000000000000000000000000000000000000000000000000600052601260045260246000fd5b6000611ced82610dd9565b9150611cf883610dd9565b925082611d0857611d07611cb3565b5b82820490509291505056fea26469706673582212203cdbee06a75c87781d1a4c3d06d27dd79d004b018017951cf70f2c5c7bee049464736f6c63430008120033",
  "linkReferences": {},
  "deployedLinkReferences": {}
}