{
  "_format": "hh-sol-artifact-1",
  "contractName": "GovToken",
  "sourceName": "contracts/GovToken/GovToken.sol",
  "abi": [
    {
      "inputs": [],
      "stateMutability": "nonpayable",
      "type": "constructor"
    },
    {
      "anonymous": false,
      "inputs": [
        {
          "indexed": true,
          "internalType": "address",
          "name": "account",
          "type": "address"
        },
        {
          "indexed": true,
          "internalType": "address",
          "name": "operator",
          "type": "address"
        },
        {
          "indexed": false,
          "internalType": "bool",
          "name": "approved",
          "type": "bool"
        }
      ],
      "name": "ApprovalForAll",
      "type": "event"
    },
    {
      "anonymous": false,
      "inputs": [
        {
          "indexed": true,
          "internalType": "bytes32",
          "name": "role",
          "type": "bytes32"
        },
        {
          "indexed": true,
          "internalType": "bytes32",
          "name": "previousAdminRole",
          "type": "bytes32"
        },
        {
          "indexed": true,
          "internalType": "bytes32",
          "name": "newAdminRole",
          "type": "bytes32"
        }
      ],
      "name": "RoleAdminChanged",
      "type": "event"
    },
    {
      "anonymous": false,
      "inputs": [
        {
          "indexed": true,
          "internalType": "bytes32",
          "name": "role",
          "type": "bytes32"
        },
        {
          "indexed": true,
          "internalType": "address",
          "name": "account",
          "type": "address"
        },
        {
          "indexed": true,
          "internalType": "address",
          "name": "sender",
          "type": "address"
        }
      ],
      "name": "RoleGranted",
      "type": "event"
    },
    {
      "anonymous": false,
      "inputs": [
        {
          "indexed": true,
          "internalType": "bytes32",
          "name": "role",
          "type": "bytes32"
        },
        {
          "indexed": true,
          "internalType": "address",
          "name": "account",
          "type": "address"
        },
        {
          "indexed": true,
          "internalType": "address",
          "name": "sender",
          "type": "address"
        }
      ],
      "name": "RoleRevoked",
      "type": "event"
    },
    {
      "anonymous": false,
      "inputs": [
        {
          "indexed": true,
          "internalType": "address",
          "name": "operator",
          "type": "address"
        },
        {
          "indexed": true,
          "internalType": "address",
          "name": "from",
          "type": "address"
        },
        {
          "indexed": true,
          "internalType": "address",
          "name": "to",
          "type": "address"
        },
        {
          "indexed": false,
          "internalType": "uint256[]",
          "name": "ids",
          "type": "uint256[]"
        },
        {
          "indexed": false,
          "internalType": "uint256[]",
          "name": "values",
          "type": "uint256[]"
        }
      ],
      "name": "TransferBatch",
      "type": "event"
    },
    {
      "anonymous": false,
      "inputs": [
        {
          "indexed": true,
          "internalType": "address",
          "name": "operator",
          "type": "address"
        },
        {
          "indexed": true,
          "internalType": "address",
          "name": "from",
          "type": "address"
        },
        {
          "indexed": true,
          "internalType": "address",
          "name": "to",
          "type": "address"
        },
        {
          "indexed": false,
          "internalType": "uint256",
          "name": "id",
          "type": "uint256"
        },
        {
          "indexed": false,
          "internalType": "uint256",
          "name": "value",
          "type": "uint256"
        }
      ],
      "name": "TransferSingle",
      "type": "event"
    },
    {
      "anonymous": false,
      "inputs": [
        {
          "indexed": false,
          "internalType": "string",
          "name": "value",
          "type": "string"
        },
        {
          "indexed": true,
          "internalType": "uint256",
          "name": "id",
          "type": "uint256"
        }
      ],
      "name": "URI",
      "type": "event"
    },
    {
      "inputs": [],
      "name": "DEFAULT_ADMIN_ROLE",
      "outputs": [
        {
          "internalType": "bytes32",
          "name": "",
          "type": "bytes32"
        }
      ],
      "stateMutability": "view",
      "type": "function"
    },
    {
      "inputs": [],
      "name": "GOVERNMENT_ROLE",
      "outputs": [
        {
          "internalType": "bytes32",
          "name": "",
          "type": "bytes32"
        }
      ],
      "stateMutability": "view",
      "type": "function"
    },
    {
      "inputs": [],
      "name": "MINTER_ROLE",
      "outputs": [
        {
          "internalType": "bytes32",
          "name": "",
          "type": "bytes32"
        }
      ],
      "stateMutability": "view",
      "type": "function"
    },
    {
      "inputs": [],
      "name": "URI_SETTER_ROLE",
      "outputs": [
        {
          "internalType": "bytes32",
          "name": "",
          "type": "bytes32"
        }
      ],
      "stateMutability": "view",
      "type": "function"
    },
    {
      "inputs": [
        {
          "internalType": "address",
          "name": "account",
          "type": "address"
        },
        {
          "internalType": "uint256",
          "name": "id",
          "type": "uint256"
        }
      ],
      "name": "balanceOf",
      "outputs": [
        {
          "internalType": "uint256",
          "name": "",
          "type": "uint256"
        }
      ],
      "stateMutability": "view",
      "type": "function"
    },
    {
      "inputs": [
        {
          "internalType": "address[]",
          "name": "accounts",
          "type": "address[]"
        },
        {
          "internalType": "uint256[]",
          "name": "ids",
          "type": "uint256[]"
        }
      ],
      "name": "balanceOfBatch",
      "outputs": [
        {
          "internalType": "uint256[]",
          "name": "",
          "type": "uint256[]"
        }
      ],
      "stateMutability": "view",
      "type": "function"
    },
    {
      "inputs": [],
      "name": "daoMembersAmount",
      "outputs": [
        {
          "internalType": "uint256",
          "name": "",
          "type": "uint256"
        }
      ],
      "stateMutability": "view",
      "type": "function"
    },
    {
      "inputs": [],
      "name": "getDaoMembersAmount",
      "outputs": [
        {
          "internalType": "uint256",
          "name": "",
          "type": "uint256"
        }
      ],
      "stateMutability": "view",
      "type": "function"
    },
    {
      "inputs": [
        {
          "internalType": "bytes32",
          "name": "role",
          "type": "bytes32"
        }
      ],
      "name": "getRoleAdmin",
      "outputs": [
        {
          "internalType": "bytes32",
          "name": "",
          "type": "bytes32"
        }
      ],
      "stateMutability": "view",
      "type": "function"
    },
    {
      "inputs": [
        {
          "internalType": "bytes32",
          "name": "role",
          "type": "bytes32"
        },
        {
          "internalType": "address",
          "name": "account",
          "type": "address"
        }
      ],
      "name": "grantRole",
      "outputs": [],
      "stateMutability": "nonpayable",
      "type": "function"
    },
    {
      "inputs": [
        {
          "internalType": "bytes32",
          "name": "role",
          "type": "bytes32"
        },
        {
          "internalType": "address",
          "name": "account",
          "type": "address"
        }
      ],
      "name": "hasRole",
      "outputs": [
        {
          "internalType": "bool",
          "name": "",
          "type": "bool"
        }
      ],
      "stateMutability": "view",
      "type": "function"
    },
    {
      "inputs": [
        {
          "internalType": "address",
          "name": "account",
          "type": "address"
        },
        {
          "internalType": "address",
          "name": "operator",
          "type": "address"
        }
      ],
      "name": "isApprovedForAll",
      "outputs": [
        {
          "internalType": "bool",
          "name": "",
          "type": "bool"
        }
      ],
      "stateMutability": "view",
      "type": "function"
    },
    {
      "inputs": [
        {
          "internalType": "address",
          "name": "account",
          "type": "address"
        },
        {
          "internalType": "uint256",
          "name": "id",
          "type": "uint256"
        },
        {
          "internalType": "uint256",
          "name": "amount",
          "type": "uint256"
        }
      ],
      "name": "mint",
      "outputs": [],
      "stateMutability": "nonpayable",
      "type": "function"
    },
    {
      "inputs": [
        {
          "internalType": "address",
          "name": "to",
          "type": "address"
        },
        {
          "internalType": "uint256[]",
          "name": "ids",
          "type": "uint256[]"
        },
        {
          "internalType": "uint256[]",
          "name": "amounts",
          "type": "uint256[]"
        },
        {
          "internalType": "bytes",
          "name": "data",
          "type": "bytes"
        }
      ],
      "name": "mintBatch",
      "outputs": [],
      "stateMutability": "nonpayable",
      "type": "function"
    },
    {
      "inputs": [
        {
          "internalType": "bytes32",
          "name": "role",
          "type": "bytes32"
        },
        {
          "internalType": "address",
          "name": "account",
          "type": "address"
        }
      ],
      "name": "renounceRole",
      "outputs": [],
      "stateMutability": "nonpayable",
      "type": "function"
    },
    {
      "inputs": [
        {
          "internalType": "bytes32",
          "name": "role",
          "type": "bytes32"
        },
        {
          "internalType": "address",
          "name": "account",
          "type": "address"
        }
      ],
      "name": "revokeRole",
      "outputs": [],
      "stateMutability": "nonpayable",
      "type": "function"
    },
    {
      "inputs": [
        {
          "internalType": "address",
          "name": "from",
          "type": "address"
        },
        {
          "internalType": "address",
          "name": "to",
          "type": "address"
        },
        {
          "internalType": "uint256[]",
          "name": "ids",
          "type": "uint256[]"
        },
        {
          "internalType": "uint256[]",
          "name": "amounts",
          "type": "uint256[]"
        },
        {
          "internalType": "bytes",
          "name": "data",
          "type": "bytes"
        }
      ],
      "name": "safeBatchTransferFrom",
      "outputs": [],
      "stateMutability": "nonpayable",
      "type": "function"
    },
    {
      "inputs": [
        {
          "internalType": "address",
          "name": "from",
          "type": "address"
        },
        {
          "internalType": "address",
          "name": "to",
          "type": "address"
        },
        {
          "internalType": "uint256",
          "name": "id",
          "type": "uint256"
        },
        {
          "internalType": "uint256",
          "name": "amount",
          "type": "uint256"
        },
        {
          "internalType": "bytes",
          "name": "data",
          "type": "bytes"
        }
      ],
      "name": "safeTransferFrom",
      "outputs": [],
      "stateMutability": "nonpayable",
      "type": "function"
    },
    {
      "inputs": [
        {
          "internalType": "address",
          "name": "operator",
          "type": "address"
        },
        {
          "internalType": "bool",
          "name": "approved",
          "type": "bool"
        }
      ],
      "name": "setApprovalForAll",
      "outputs": [],
      "stateMutability": "nonpayable",
      "type": "function"
    },
    {
      "inputs": [
        {
          "internalType": "string",
          "name": "newuri",
          "type": "string"
        }
      ],
      "name": "setURI",
      "outputs": [],
      "stateMutability": "nonpayable",
      "type": "function"
    },
    {
      "inputs": [
        {
          "internalType": "bytes4",
          "name": "interfaceId",
          "type": "bytes4"
        }
      ],
      "name": "supportsInterface",
      "outputs": [
        {
          "internalType": "bool",
          "name": "",
          "type": "bool"
        }
      ],
      "stateMutability": "view",
      "type": "function"
    },
    {
      "inputs": [
        {
          "internalType": "uint256",
          "name": "",
          "type": "uint256"
        }
      ],
      "name": "uri",
      "outputs": [
        {
          "internalType": "string",
          "name": "",
          "type": "string"
        }
      ],
      "stateMutability": "view",
      "type": "function"
    }
  ],
  "bytecode": "0x60806040523480156200001157600080fd5b50604051806020016040528060008152506200003381620000ed60201b60201c565b50620000496000801b336200010260201b60201c565b6200007b7f7804d923f43a17d325d77e781528e0793b2edd9890ab45fc64efd7b4b427744c336200010260201b60201c565b620000ad7f9f2df0fed2c77648de5860a4cc508cd0818c85b8b8a1ab4ceeef8d981c8956a6336200010260201b60201c565b620000df7f9f2df0fed2c77648de5860a4cc508cd0818c85b8b8a1ab4ceeef8d981c8956a6336200010260201b60201c565b6000600481905550620005c8565b8060029081620000fe9190620004e1565b5050565b620001148282620001f460201b60201c565b620001f05760016003600084815260200190815260200160002060000160008373ffffffffffffffffffffffffffffffffffffffff1673ffffffffffffffffffffffffffffffffffffffff16815260200190815260200160002060006101000a81548160ff021916908315150217905550620001956200025f60201b60201c565b73ffffffffffffffffffffffffffffffffffffffff168173ffffffffffffffffffffffffffffffffffffffff16837f2f8788117e7eff1d82e926ec794901d17c78024a50270940304540a733656f0d60405160405180910390a45b5050565b60006003600084815260200190815260200160002060000160008373ffffffffffffffffffffffffffffffffffffffff1673ffffffffffffffffffffffffffffffffffffffff16815260200190815260200160002060009054906101000a900460ff16905092915050565b600033905090565b600081519050919050565b7f4e487b7100000000000000000000000000000000000000000000000000000000600052604160045260246000fd5b7f4e487b7100000000000000000000000000000000000000000000000000000000600052602260045260246000fd5b60006002820490506001821680620002e957607f821691505b602082108103620002ff57620002fe620002a1565b5b50919050565b60008190508160005260206000209050919050565b60006020601f8301049050919050565b600082821b905092915050565b600060088302620003697fffffffffffffffffffffffffffffffffffffffffffffffffffffffffffffffff826200032a565b6200037586836200032a565b95508019841693508086168417925050509392505050565b6000819050919050565b6000819050919050565b6000620003c2620003bc620003b6846200038d565b62000397565b6200038d565b9050919050565b6000819050919050565b620003de83620003a1565b620003f6620003ed82620003c9565b84845462000337565b825550505050565b600090565b6200040d620003fe565b6200041a818484620003d3565b505050565b5b8181101562000442576200043660008262000403565b60018101905062000420565b5050565b601f82111562000491576200045b8162000305565b62000466846200031a565b8101602085101562000476578190505b6200048e62000485856200031a565b8301826200041f565b50505b505050565b600082821c905092915050565b6000620004b66000198460080262000496565b1980831691505092915050565b6000620004d18383620004a3565b9150826002028217905092915050565b620004ec8262000267565b67ffffffffffffffff81111562000508576200050762000272565b5b620005148254620002d0565b6200052182828562000446565b600060209050601f83116001811462000559576000841562000544578287015190505b620005508582620004c3565b865550620005c0565b601f198416620005698662000305565b60005b8281101562000593578489015182556001820191506020850194506020810190506200056c565b86831015620005b35784890151620005af601f891682620004a3565b8355505b6001600288020188555050505b505050505050565b613c4480620005d86000396000f3fe608060405234801561001057600080fd5b50600436106101415760003560e01c8063521a2057116100b8578063a217fddf1161007c578063a217fddf14610386578063a22cb465146103a4578063d5391393146103c0578063d547741f146103de578063e985e9c5146103fa578063f242432a1461042a57610141565b8063521a2057146102de5780635ee6ed4b146102fc5780637f3457101461031a57806391d14854146103385780639cbed5821461036857610141565b80631f7fdffa1161010a5780631f7fdffa1461020e578063248a9ca31461022a5780632eb2c2d61461025a5780632f2ff15d1461027657806336568abe146102925780634e1273f4146102ae57610141565b8062fdd58e1461014657806301ffc9a71461017657806302fe5305146101a65780630e89341c146101c2578063156e29f6146101f2575b600080fd5b610160600480360381019061015b9190612245565b610446565b60405161016d9190612294565b60405180910390f35b610190600480360381019061018b9190612307565b61050e565b60405161019d919061234f565b60405180910390f35b6101c060048036038101906101bb91906124b0565b610520565b005b6101dc60048036038101906101d791906124f9565b610557565b6040516101e991906125a5565b60405180910390f35b61020c600480360381019061020791906125c7565b6105eb565b005b61022860048036038101906102239190612783565b6106a0565b005b610244600480360381019061023f9190612874565b6106c0565b60405161025191906128b0565b60405180910390f35b610274600480360381019061026f91906128cb565b6106e0565b005b610290600480360381019061028b919061299a565b610781565b005b6102ac60048036038101906102a7919061299a565b6107a2565b005b6102c860048036038101906102c39190612a9d565b610825565b6040516102d59190612bd3565b60405180910390f35b6102e661093e565b6040516102f39190612294565b60405180910390f35b610304610944565b6040516103119190612294565b60405180910390f35b61032261094e565b60405161032f91906128b0565b60405180910390f35b610352600480360381019061034d919061299a565b610972565b60405161035f919061234f565b60405180910390f35b6103706109dd565b60405161037d91906128b0565b60405180910390f35b61038e610a01565b60405161039b91906128b0565b60405180910390f35b6103be60048036038101906103b99190612c21565b610a08565b005b6103c8610a1e565b6040516103d591906128b0565b60405180910390f35b6103f860048036038101906103f3919061299a565b610a42565b005b610414600480360381019061040f9190612c61565b610a63565b604051610421919061234f565b60405180910390f35b610444600480360381019061043f9190612ca1565b610af7565b005b60008073ffffffffffffffffffffffffffffffffffffffff168373ffffffffffffffffffffffffffffffffffffffff16036104b6576040517f08c379a00000000000000000000000000000000000000000000000000000000081526004016104ad90612daa565b60405180910390fd5b60008083815260200190815260200160002060008473ffffffffffffffffffffffffffffffffffffffff1673ffffffffffffffffffffffffffffffffffffffff16815260200190815260200160002054905092915050565b600061051982610b98565b9050919050565b7f7804d923f43a17d325d77e781528e0793b2edd9890ab45fc64efd7b4b427744c61054a81610c12565b61055382610c26565b5050565b60606002805461056690612df9565b80601f016020809104026020016040519081016040528092919081815260200182805461059290612df9565b80156105df5780601f106105b4576101008083540402835291602001916105df565b820191906000526020600020905b8154815290600101906020018083116105c257829003601f168201915b50505050509050919050565b6000801b6105f881610c12565b6001821461063b576040517f08c379a000000000000000000000000000000000000000000000000000000000815260040161063290612e76565b60405180910390fd5b6106657f9f2df0fed2c77648de5860a4cc508cd0818c85b8b8a1ab4ceeef8d981c8956a685610c39565b61068084848460405180602001604052806000815250610d1a565b6001600460008282546106939190612ec5565b9250508190555050505050565b6000801b6106ad81610c12565b6106b985858585610eca565b5050505050565b600060036000838152602001908152602001600020600101549050919050565b6106e86110f6565b73ffffffffffffffffffffffffffffffffffffffff168573ffffffffffffffffffffffffffffffffffffffff16148061072e575061072d856107286110f6565b610a63565b5b61076d576040517f08c379a000000000000000000000000000000000000000000000000000000000815260040161076490612f6b565b60405180910390fd5b61077a85858585856110fe565b5050505050565b61078a826106c0565b61079381610c12565b61079d8383610c39565b505050565b6107aa6110f6565b73ffffffffffffffffffffffffffffffffffffffff168173ffffffffffffffffffffffffffffffffffffffff1614610817576040517f08c379a000000000000000000000000000000000000000000000000000000000815260040161080e90612ffd565b60405180910390fd5b610821828261141f565b5050565b6060815183511461086b576040517f08c379a00000000000000000000000000000000000000000000000000000000081526004016108629061308f565b60405180910390fd5b6000835167ffffffffffffffff81111561088857610887612385565b5b6040519080825280602002602001820160405280156108b65781602001602082028036833780820191505090505b50905060005b8451811015610933576109038582815181106108db576108da6130af565b5b60200260200101518583815181106108f6576108f56130af565b5b6020026020010151610446565b828281518110610916576109156130af565b5b6020026020010181815250508061092c906130de565b90506108bc565b508091505092915050565b60045481565b6000600454905090565b7f7804d923f43a17d325d77e781528e0793b2edd9890ab45fc64efd7b4b427744c81565b60006003600084815260200190815260200160002060000160008373ffffffffffffffffffffffffffffffffffffffff1673ffffffffffffffffffffffffffffffffffffffff16815260200190815260200160002060009054906101000a900460ff16905092915050565b7f9f2df0fed2c77648de5860a4cc508cd0818c85b8b8a1ab4ceeef8d981c8956a681565b6000801b81565b610a1a610a136110f6565b8383611501565b5050565b7f9f2df0fed2c77648de5860a4cc508cd0818c85b8b8a1ab4ceeef8d981c8956a681565b610a4b826106c0565b610a5481610c12565b610a5e838361141f565b505050565b6000600160008473ffffffffffffffffffffffffffffffffffffffff1673ffffffffffffffffffffffffffffffffffffffff16815260200190815260200160002060008373ffffffffffffffffffffffffffffffffffffffff1673ffffffffffffffffffffffffffffffffffffffff16815260200190815260200160002060009054906101000a900460ff16905092915050565b610aff6110f6565b73ffffffffffffffffffffffffffffffffffffffff168573ffffffffffffffffffffffffffffffffffffffff161480610b455750610b4485610b3f6110f6565b610a63565b5b610b84576040517f08c379a0000000000000000000000000000000000000000000000000000000008152600401610b7b90612f6b565b60405180910390fd5b610b91858585858561166d565b5050505050565b60007f7965db0b000000000000000000000000000000000000000000000000000000007bffffffffffffffffffffffffffffffffffffffffffffffffffffffff1916827bffffffffffffffffffffffffffffffffffffffffffffffffffffffff19161480610c0b5750610c0a82611908565b5b9050919050565b610c2381610c1e6110f6565b6119ea565b50565b8060029081610c3591906132d2565b5050565b610c438282610972565b610d165760016003600084815260200190815260200160002060000160008373ffffffffffffffffffffffffffffffffffffffff1673ffffffffffffffffffffffffffffffffffffffff16815260200190815260200160002060006101000a81548160ff021916908315150217905550610cbb6110f6565b73ffffffffffffffffffffffffffffffffffffffff168173ffffffffffffffffffffffffffffffffffffffff16837f2f8788117e7eff1d82e926ec794901d17c78024a50270940304540a733656f0d60405160405180910390a45b5050565b600073ffffffffffffffffffffffffffffffffffffffff168473ffffffffffffffffffffffffffffffffffffffff1603610d89576040517f08c379a0000000000000000000000000000000000000000000000000000000008152600401610d8090613416565b60405180910390fd5b6000610d936110f6565b90506000610da085611a6f565b90506000610dad85611a6f565b9050610dbe83600089858589611ae9565b8460008088815260200190815260200160002060008973ffffffffffffffffffffffffffffffffffffffff1673ffffffffffffffffffffffffffffffffffffffff1681526020019081526020016000206000828254610e1d9190612ec5565b925050819055508673ffffffffffffffffffffffffffffffffffffffff16600073ffffffffffffffffffffffffffffffffffffffff168473ffffffffffffffffffffffffffffffffffffffff167fc3d58168c5ae7397731d063d5bbf3d657854427343f4c083240f7aacaa2d0f628989604051610e9b929190613436565b60405180910390a4610eb283600089858589611af1565b610ec183600089898989611af9565b50505050505050565b600073ffffffffffffffffffffffffffffffffffffffff168473ffffffffffffffffffffffffffffffffffffffff1603610f39576040517f08c379a0000000000000000000000000000000000000000000000000000000008152600401610f3090613416565b60405180910390fd5b8151835114610f7d576040517f08c379a0000000000000000000000000000000000000000000000000000000008152600401610f74906134d1565b60405180910390fd5b6000610f876110f6565b9050610f9881600087878787611ae9565b60005b845181101561105157838181518110610fb757610fb66130af565b5b6020026020010151600080878481518110610fd557610fd46130af565b5b6020026020010151815260200190815260200160002060008873ffffffffffffffffffffffffffffffffffffffff1673ffffffffffffffffffffffffffffffffffffffff16815260200190815260200160002060008282546110379190612ec5565b925050819055508080611049906130de565b915050610f9b565b508473ffffffffffffffffffffffffffffffffffffffff16600073ffffffffffffffffffffffffffffffffffffffff168273ffffffffffffffffffffffffffffffffffffffff167f4a39dc06d4c0dbc64b70af90fd698a233a518aa5d07e595d983b8c0526c8f7fb87876040516110c99291906134f1565b60405180910390a46110e081600087878787611af1565b6110ef81600087878787611cd0565b5050505050565b600033905090565b8151835114611142576040517f08c379a0000000000000000000000000000000000000000000000000000000008152600401611139906134d1565b60405180910390fd5b600073ffffffffffffffffffffffffffffffffffffffff168473ffffffffffffffffffffffffffffffffffffffff16036111b1576040517f08c379a00000000000000000000000000000000000000000000000000000000081526004016111a89061359a565b60405180910390fd5b60006111bb6110f6565b90506111cb818787878787611ae9565b60005b845181101561137c5760008582815181106111ec576111eb6130af565b5b60200260200101519050600085838151811061120b5761120a6130af565b5b60200260200101519050600080600084815260200190815260200160002060008b73ffffffffffffffffffffffffffffffffffffffff1673ffffffffffffffffffffffffffffffffffffffff168152602001908152602001600020549050818110156112ac576040517f08c379a00000000000000000000000000000000000000000000000000000000081526004016112a39061362c565b60405180910390fd5b81810360008085815260200190815260200160002060008c73ffffffffffffffffffffffffffffffffffffffff1673ffffffffffffffffffffffffffffffffffffffff168152602001908152602001600020819055508160008085815260200190815260200160002060008b73ffffffffffffffffffffffffffffffffffffffff1673ffffffffffffffffffffffffffffffffffffffff16815260200190815260200160002060008282546113619190612ec5565b9250508190555050505080611375906130de565b90506111ce565b508473ffffffffffffffffffffffffffffffffffffffff168673ffffffffffffffffffffffffffffffffffffffff168273ffffffffffffffffffffffffffffffffffffffff167f4a39dc06d4c0dbc64b70af90fd698a233a518aa5d07e595d983b8c0526c8f7fb87876040516113f39291906134f1565b60405180910390a4611409818787878787611af1565b611417818787878787611cd0565b505050505050565b6114298282610972565b156114fd5760006003600084815260200190815260200160002060000160008373ffffffffffffffffffffffffffffffffffffffff1673ffffffffffffffffffffffffffffffffffffffff16815260200190815260200160002060006101000a81548160ff0219169083151502179055506114a26110f6565b73ffffffffffffffffffffffffffffffffffffffff168173ffffffffffffffffffffffffffffffffffffffff16837ff6391f5c32d9c69d2a47ea670b442974b53935d1edc7fd64eb21e047a839171b60405160405180910390a45b5050565b8173ffffffffffffffffffffffffffffffffffffffff168373ffffffffffffffffffffffffffffffffffffffff160361156f576040517f08c379a0000000000000000000000000000000000000000000000000000000008152600401611566906136be565b60405180910390fd5b80600160008573ffffffffffffffffffffffffffffffffffffffff1673ffffffffffffffffffffffffffffffffffffffff16815260200190815260200160002060008473ffffffffffffffffffffffffffffffffffffffff1673ffffffffffffffffffffffffffffffffffffffff16815260200190815260200160002060006101000a81548160ff0219169083151502179055508173ffffffffffffffffffffffffffffffffffffffff168373ffffffffffffffffffffffffffffffffffffffff167f17307eab39ab6107e8899845ad3d59bd9653f200f220920489ca2b5937696c3183604051611660919061234f565b60405180910390a3505050565b600073ffffffffffffffffffffffffffffffffffffffff168473ffffffffffffffffffffffffffffffffffffffff16036116dc576040517f08c379a00000000000000000000000000000000000000000000000000000000081526004016116d39061359a565b60405180910390fd5b60006116e66110f6565b905060006116f385611a6f565b9050600061170085611a6f565b9050611710838989858589611ae9565b600080600088815260200190815260200160002060008a73ffffffffffffffffffffffffffffffffffffffff1673ffffffffffffffffffffffffffffffffffffffff168152602001908152602001600020549050858110156117a7576040517f08c379a000000000000000000000000000000000000000000000000000000000815260040161179e9061362c565b60405180910390fd5b85810360008089815260200190815260200160002060008b73ffffffffffffffffffffffffffffffffffffffff1673ffffffffffffffffffffffffffffffffffffffff168152602001908152602001600020819055508560008089815260200190815260200160002060008a73ffffffffffffffffffffffffffffffffffffffff1673ffffffffffffffffffffffffffffffffffffffff168152602001908152602001600020600082825461185c9190612ec5565b925050819055508773ffffffffffffffffffffffffffffffffffffffff168973ffffffffffffffffffffffffffffffffffffffff168573ffffffffffffffffffffffffffffffffffffffff167fc3d58168c5ae7397731d063d5bbf3d657854427343f4c083240f7aacaa2d0f628a8a6040516118d9929190613436565b60405180910390a46118ef848a8a86868a611af1565b6118fd848a8a8a8a8a611af9565b505050505050505050565b60007fd9b67a26000000000000000000000000000000000000000000000000000000007bffffffffffffffffffffffffffffffffffffffffffffffffffffffff1916827bffffffffffffffffffffffffffffffffffffffffffffffffffffffff191614806119d357507f0e89341c000000000000000000000000000000000000000000000000000000007bffffffffffffffffffffffffffffffffffffffffffffffffffffffff1916827bffffffffffffffffffffffffffffffffffffffffffffffffffffffff1916145b806119e357506119e282611ea7565b5b9050919050565b6119f48282610972565b611a6b57611a0181611f11565b611a0f8360001c6020611f3e565b604051602001611a209291906137b2565b6040516020818303038152906040526040517f08c379a0000000000000000000000000000000000000000000000000000000008152600401611a6291906125a5565b60405180910390fd5b5050565b60606000600167ffffffffffffffff811115611a8e57611a8d612385565b5b604051908082528060200260200182016040528015611abc5781602001602082028036833780820191505090505b5090508281600081518110611ad457611ad36130af565b5b60200260200101818152505080915050919050565b505050505050565b505050505050565b611b188473ffffffffffffffffffffffffffffffffffffffff1661217a565b15611cc8578373ffffffffffffffffffffffffffffffffffffffff1663f23a6e6187878686866040518663ffffffff1660e01b8152600401611b5e959493929190613850565b6020604051808303816000875af1925050508015611b9a57506040513d601f19601f82011682018060405250810190611b9791906138bf565b60015b611c3f57611ba66138f9565b806308c379a003611c025750611bba61391b565b80611bc55750611c04565b806040517f08c379a0000000000000000000000000000000000000000000000000000000008152600401611bf991906125a5565b60405180910390fd5b505b6040517f08c379a0000000000000000000000000000000000000000000000000000000008152600401611c3690613a1d565b60405180910390fd5b63f23a6e6160e01b7bffffffffffffffffffffffffffffffffffffffffffffffffffffffff1916817bffffffffffffffffffffffffffffffffffffffffffffffffffffffff191614611cc6576040517f08c379a0000000000000000000000000000000000000000000000000000000008152600401611cbd90613aaf565b60405180910390fd5b505b505050505050565b611cef8473ffffffffffffffffffffffffffffffffffffffff1661217a565b15611e9f578373ffffffffffffffffffffffffffffffffffffffff1663bc197c8187878686866040518663ffffffff1660e01b8152600401611d35959493929190613acf565b6020604051808303816000875af1925050508015611d7157506040513d601f19601f82011682018060405250810190611d6e91906138bf565b60015b611e1657611d7d6138f9565b806308c379a003611dd95750611d9161391b565b80611d9c5750611ddb565b806040517f08c379a0000000000000000000000000000000000000000000000000000000008152600401611dd091906125a5565b60405180910390fd5b505b6040517f08c379a0000000000000000000000000000000000000000000000000000000008152600401611e0d90613a1d565b60405180910390fd5b63bc197c8160e01b7bffffffffffffffffffffffffffffffffffffffffffffffffffffffff1916817bffffffffffffffffffffffffffffffffffffffffffffffffffffffff191614611e9d576040517f08c379a0000000000000000000000000000000000000000000000000000000008152600401611e9490613aaf565b60405180910390fd5b505b505050505050565b60007f01ffc9a7000000000000000000000000000000000000000000000000000000007bffffffffffffffffffffffffffffffffffffffffffffffffffffffff1916827bffffffffffffffffffffffffffffffffffffffffffffffffffffffff1916149050919050565b6060611f378273ffffffffffffffffffffffffffffffffffffffff16601460ff16611f3e565b9050919050565b606060006002836002611f519190613b37565b611f5b9190612ec5565b67ffffffffffffffff811115611f7457611f73612385565b5b6040519080825280601f01601f191660200182016040528015611fa65781602001600182028036833780820191505090505b5090507f300000000000000000000000000000000000000000000000000000000000000081600081518110611fde57611fdd6130af565b5b60200101907effffffffffffffffffffffffffffffffffffffffffffffffffffffffffffff1916908160001a9053507f780000000000000000000000000000000000000000000000000000000000000081600181518110612042576120416130af565b5b60200101907effffffffffffffffffffffffffffffffffffffffffffffffffffffffffffff1916908160001a905350600060018460026120829190613b37565b61208c9190612ec5565b90505b600181111561212c577f3031323334353637383961626364656600000000000000000000000000000000600f8616601081106120ce576120cd6130af565b5b1a60f81b8282815181106120e5576120e46130af565b5b60200101907effffffffffffffffffffffffffffffffffffffffffffffffffffffffffffff1916908160001a905350600485901c94508061212590613b79565b905061208f565b5060008414612170576040517f08c379a000000000000000000000000000000000000000000000000000000000815260040161216790613bee565b60405180910390fd5b8091505092915050565b6000808273ffffffffffffffffffffffffffffffffffffffff163b119050919050565b6000604051905090565b600080fd5b600080fd5b600073ffffffffffffffffffffffffffffffffffffffff82169050919050565b60006121dc826121b1565b9050919050565b6121ec816121d1565b81146121f757600080fd5b50565b600081359050612209816121e3565b92915050565b6000819050919050565b6122228161220f565b811461222d57600080fd5b50565b60008135905061223f81612219565b92915050565b6000806040838503121561225c5761225b6121a7565b5b600061226a858286016121fa565b925050602061227b85828601612230565b9150509250929050565b61228e8161220f565b82525050565b60006020820190506122a96000830184612285565b92915050565b60007fffffffff0000000000000000000000000000000000000000000000000000000082169050919050565b6122e4816122af565b81146122ef57600080fd5b50565b600081359050612301816122db565b92915050565b60006020828403121561231d5761231c6121a7565b5b600061232b848285016122f2565b91505092915050565b60008115159050919050565b61234981612334565b82525050565b60006020820190506123646000830184612340565b92915050565b600080fd5b600080fd5b6000601f19601f8301169050919050565b7f4e487b7100000000000000000000000000000000000000000000000000000000600052604160045260246000fd5b6123bd82612374565b810181811067ffffffffffffffff821117156123dc576123db612385565b5b80604052505050565b60006123ef61219d565b90506123fb82826123b4565b919050565b600067ffffffffffffffff82111561241b5761241a612385565b5b61242482612374565b9050602081019050919050565b82818337600083830152505050565b600061245361244e84612400565b6123e5565b90508281526020810184848401111561246f5761246e61236f565b5b61247a848285612431565b509392505050565b600082601f8301126124975761249661236a565b5b81356124a7848260208601612440565b91505092915050565b6000602082840312156124c6576124c56121a7565b5b600082013567ffffffffffffffff8111156124e4576124e36121ac565b5b6124f084828501612482565b91505092915050565b60006020828403121561250f5761250e6121a7565b5b600061251d84828501612230565b91505092915050565b600081519050919050565b600082825260208201905092915050565b60005b83811015612560578082015181840152602081019050612545565b60008484015250505050565b600061257782612526565b6125818185612531565b9350612591818560208601612542565b61259a81612374565b840191505092915050565b600060208201905081810360008301526125bf818461256c565b905092915050565b6000806000606084860312156125e0576125df6121a7565b5b60006125ee868287016121fa565b93505060206125ff86828701612230565b925050604061261086828701612230565b9150509250925092565b600067ffffffffffffffff82111561263557612634612385565b5b602082029050602081019050919050565b600080fd5b600061265e6126598461261a565b6123e5565b9050808382526020820190506020840283018581111561268157612680612646565b5b835b818110156126aa57806126968882612230565b845260208401935050602081019050612683565b5050509392505050565b600082601f8301126126c9576126c861236a565b5b81356126d984826020860161264b565b91505092915050565b600067ffffffffffffffff8211156126fd576126fc612385565b5b61270682612374565b9050602081019050919050565b6000612726612721846126e2565b6123e5565b9050828152602081018484840111156127425761274161236f565b5b61274d848285612431565b509392505050565b600082601f83011261276a5761276961236a565b5b813561277a848260208601612713565b91505092915050565b6000806000806080858703121561279d5761279c6121a7565b5b60006127ab878288016121fa565b945050602085013567ffffffffffffffff8111156127cc576127cb6121ac565b5b6127d8878288016126b4565b935050604085013567ffffffffffffffff8111156127f9576127f86121ac565b5b612805878288016126b4565b925050606085013567ffffffffffffffff811115612826576128256121ac565b5b61283287828801612755565b91505092959194509250565b6000819050919050565b6128518161283e565b811461285c57600080fd5b50565b60008135905061286e81612848565b92915050565b60006020828403121561288a576128896121a7565b5b60006128988482850161285f565b91505092915050565b6128aa8161283e565b82525050565b60006020820190506128c560008301846128a1565b92915050565b600080600080600060a086880312156128e7576128e66121a7565b5b60006128f5888289016121fa565b9550506020612906888289016121fa565b945050604086013567ffffffffffffffff811115612927576129266121ac565b5b612933888289016126b4565b935050606086013567ffffffffffffffff811115612954576129536121ac565b5b612960888289016126b4565b925050608086013567ffffffffffffffff811115612981576129806121ac565b5b61298d88828901612755565b9150509295509295909350565b600080604083850312156129b1576129b06121a7565b5b60006129bf8582860161285f565b92505060206129d0858286016121fa565b9150509250929050565b600067ffffffffffffffff8211156129f5576129f4612385565b5b602082029050602081019050919050565b6000612a19612a14846129da565b6123e5565b90508083825260208201905060208402830185811115612a3c57612a3b612646565b5b835b81811015612a655780612a5188826121fa565b845260208401935050602081019050612a3e565b5050509392505050565b600082601f830112612a8457612a8361236a565b5b8135612a94848260208601612a06565b91505092915050565b60008060408385031215612ab457612ab36121a7565b5b600083013567ffffffffffffffff811115612ad257612ad16121ac565b5b612ade85828601612a6f565b925050602083013567ffffffffffffffff811115612aff57612afe6121ac565b5b612b0b858286016126b4565b9150509250929050565b600081519050919050565b600082825260208201905092915050565b6000819050602082019050919050565b612b4a8161220f565b82525050565b6000612b5c8383612b41565b60208301905092915050565b6000602082019050919050565b6000612b8082612b15565b612b8a8185612b20565b9350612b9583612b31565b8060005b83811015612bc6578151612bad8882612b50565b9750612bb883612b68565b925050600181019050612b99565b5085935050505092915050565b60006020820190508181036000830152612bed8184612b75565b905092915050565b612bfe81612334565b8114612c0957600080fd5b50565b600081359050612c1b81612bf5565b92915050565b60008060408385031215612c3857612c376121a7565b5b6000612c46858286016121fa565b9250506020612c5785828601612c0c565b9150509250929050565b60008060408385031215612c7857612c776121a7565b5b6000612c86858286016121fa565b9250506020612c97858286016121fa565b9150509250929050565b600080600080600060a08688031215612cbd57612cbc6121a7565b5b6000612ccb888289016121fa565b9550506020612cdc888289016121fa565b9450506040612ced88828901612230565b9350506060612cfe88828901612230565b925050608086013567ffffffffffffffff811115612d1f57612d1e6121ac565b5b612d2b88828901612755565b9150509295509295909350565b7f455243313135353a2061646472657373207a65726f206973206e6f742061207660008201527f616c6964206f776e657200000000000000000000000000000000000000000000602082015250565b6000612d94602a83612531565b9150612d9f82612d38565b604082019050919050565b60006020820190508181036000830152612dc381612d87565b9050919050565b7f4e487b7100000000000000000000000000000000000000000000000000000000600052602260045260246000fd5b60006002820490506001821680612e1157607f821691505b602082108103612e2457612e23612dca565b5b50919050565b7f43616e206d696e74206f6e6c792031204e465421000000000000000000000000600082015250565b6000612e60601483612531565b9150612e6b82612e2a565b602082019050919050565b60006020820190508181036000830152612e8f81612e53565b9050919050565b7f4e487b7100000000000000000000000000000000000000000000000000000000600052601160045260246000fd5b6000612ed08261220f565b9150612edb8361220f565b9250828201905080821115612ef357612ef2612e96565b5b92915050565b7f455243313135353a2063616c6c6572206973206e6f7420746f6b656e206f776e60008201527f6572206f7220617070726f766564000000000000000000000000000000000000602082015250565b6000612f55602e83612531565b9150612f6082612ef9565b604082019050919050565b60006020820190508181036000830152612f8481612f48565b9050919050565b7f416363657373436f6e74726f6c3a2063616e206f6e6c792072656e6f756e636560008201527f20726f6c657320666f722073656c660000000000000000000000000000000000602082015250565b6000612fe7602f83612531565b9150612ff282612f8b565b604082019050919050565b6000602082019050818103600083015261301681612fda565b9050919050565b7f455243313135353a206163636f756e747320616e6420696473206c656e67746860008201527f206d69736d617463680000000000000000000000000000000000000000000000602082015250565b6000613079602983612531565b91506130848261301d565b604082019050919050565b600060208201905081810360008301526130a88161306c565b9050919050565b7f4e487b7100000000000000000000000000000000000000000000000000000000600052603260045260246000fd5b60006130e98261220f565b91507fffffffffffffffffffffffffffffffffffffffffffffffffffffffffffffffff820361311b5761311a612e96565b5b600182019050919050565b60008190508160005260206000209050919050565b60006020601f8301049050919050565b600082821b905092915050565b6000600883026131887fffffffffffffffffffffffffffffffffffffffffffffffffffffffffffffffff8261314b565b613192868361314b565b95508019841693508086168417925050509392505050565b6000819050919050565b60006131cf6131ca6131c58461220f565b6131aa565b61220f565b9050919050565b6000819050919050565b6131e9836131b4565b6131fd6131f5826131d6565b848454613158565b825550505050565b600090565b613212613205565b61321d8184846131e0565b505050565b5b818110156132415761323660008261320a565b600181019050613223565b5050565b601f8211156132865761325781613126565b6132608461313b565b8101602085101561326f578190505b61328361327b8561313b565b830182613222565b50505b505050565b600082821c905092915050565b60006132a96000198460080261328b565b1980831691505092915050565b60006132c28383613298565b9150826002028217905092915050565b6132db82612526565b67ffffffffffffffff8111156132f4576132f3612385565b5b6132fe8254612df9565b613309828285613245565b600060209050601f83116001811461333c576000841561332a578287015190505b61333485826132b6565b86555061339c565b601f19841661334a86613126565b60005b828110156133725784890151825560018201915060208501945060208101905061334d565b8683101561338f578489015161338b601f891682613298565b8355505b6001600288020188555050505b505050505050565b7f455243313135353a206d696e7420746f20746865207a65726f2061646472657360008201527f7300000000000000000000000000000000000000000000000000000000000000602082015250565b6000613400602183612531565b915061340b826133a4565b604082019050919050565b6000602082019050818103600083015261342f816133f3565b9050919050565b600060408201905061344b6000830185612285565b6134586020830184612285565b9392505050565b7f455243313135353a2069647320616e6420616d6f756e7473206c656e6774682060008201527f6d69736d61746368000000000000000000000000000000000000000000000000602082015250565b60006134bb602883612531565b91506134c68261345f565b604082019050919050565b600060208201905081810360008301526134ea816134ae565b9050919050565b6000604082019050818103600083015261350b8185612b75565b9050818103602083015261351f8184612b75565b90509392505050565b7f455243313135353a207472616e7366657220746f20746865207a65726f20616460008201527f6472657373000000000000000000000000000000000000000000000000000000602082015250565b6000613584602583612531565b915061358f82613528565b604082019050919050565b600060208201905081810360008301526135b381613577565b9050919050565b7f455243313135353a20696e73756666696369656e742062616c616e636520666f60008201527f72207472616e7366657200000000000000000000000000000000000000000000602082015250565b6000613616602a83612531565b9150613621826135ba565b604082019050919050565b6000602082019050818103600083015261364581613609565b9050919050565b7f455243313135353a2073657474696e6720617070726f76616c2073746174757360008201527f20666f722073656c660000000000000000000000000000000000000000000000602082015250565b60006136a8602983612531565b91506136b38261364c565b604082019050919050565b600060208201905081810360008301526136d78161369b565b9050919050565b600081905092915050565b7f416363657373436f6e74726f6c3a206163636f756e7420000000000000000000600082015250565b600061371f6017836136de565b915061372a826136e9565b601782019050919050565b600061374082612526565b61374a81856136de565b935061375a818560208601612542565b80840191505092915050565b7f206973206d697373696e6720726f6c6520000000000000000000000000000000600082015250565b600061379c6011836136de565b91506137a782613766565b601182019050919050565b60006137bd82613712565b91506137c98285613735565b91506137d48261378f565b91506137e08284613735565b91508190509392505050565b6137f5816121d1565b82525050565b600081519050919050565b600082825260208201905092915050565b6000613822826137fb565b61382c8185613806565b935061383c818560208601612542565b61384581612374565b840191505092915050565b600060a08201905061386560008301886137ec565b61387260208301876137ec565b61387f6040830186612285565b61388c6060830185612285565b818103608083015261389e8184613817565b90509695505050505050565b6000815190506138b9816122db565b92915050565b6000602082840312156138d5576138d46121a7565b5b60006138e3848285016138aa565b91505092915050565b60008160e01c9050919050565b600060033d11156139185760046000803e6139156000516138ec565b90505b90565b600060443d106139a85761392d61219d565b60043d036004823e80513d602482011167ffffffffffffffff821117156139555750506139a8565b808201805167ffffffffffffffff81111561397357505050506139a8565b80602083010160043d0385018111156139905750505050506139a8565b61399f826020018501866123b4565b82955050505050505b90565b7f455243313135353a207472616e7366657220746f206e6f6e2d4552433131353560008201527f526563656976657220696d706c656d656e746572000000000000000000000000602082015250565b6000613a07603483612531565b9150613a12826139ab565b604082019050919050565b60006020820190508181036000830152613a36816139fa565b9050919050565b7f455243313135353a204552433131353552656365697665722072656a6563746560008201527f6420746f6b656e73000000000000000000000000000000000000000000000000602082015250565b6000613a99602883612531565b9150613aa482613a3d565b604082019050919050565b60006020820190508181036000830152613ac881613a8c565b9050919050565b600060a082019050613ae460008301886137ec565b613af160208301876137ec565b8181036040830152613b038186612b75565b90508181036060830152613b178185612b75565b90508181036080830152613b2b8184613817565b90509695505050505050565b6000613b428261220f565b9150613b4d8361220f565b9250828202613b5b8161220f565b91508282048414831517613b7257613b71612e96565b5b5092915050565b6000613b848261220f565b915060008203613b9757613b96612e96565b5b600182039050919050565b7f537472696e67733a20686578206c656e67746820696e73756666696369656e74600082015250565b6000613bd8602083612531565b9150613be382613ba2565b602082019050919050565b60006020820190508181036000830152613c0781613bcb565b905091905056fea2646970667358221220757be6c5ad8e46d680e6de62581a5cc2b6ccddef954066cf8c51d54f82ffa17f64736f6c63430008120033",
  "linkReferences": {},
  "deployedLinkReferences": {}
}