{
  "_format": "hh-sol-artifact-1",
  "contractName": "DaoContract",
  "sourceName": "contracts/DAO/DaoContract.sol",
  "abi": [
    {
      "inputs": [
        {
          "internalType": "address",
          "name": "_govToken",
          "type": "address"
        }
      ],
      "stateMutability": "nonpayable",
      "type": "constructor"
    },
    {
      "inputs": [],
      "name": "GovTokenInterface",
      "outputs": [
        {
          "internalType": "contract IGovToken",
          "name": "",
          "type": "address"
        }
      ],
      "stateMutability": "view",
      "type": "function"
    },
    {
      "inputs": [
        {
          "internalType": "address",
          "name": "",
          "type": "address"
        },
        {
          "internalType": "uint256",
          "name": "",
          "type": "uint256"
        }
      ],
      "name": "NFTsBuyerAllowedToBuy",
      "outputs": [
        {
          "internalType": "uint256",
          "name": "",
          "type": "uint256"
        }
      ],
      "stateMutability": "view",
      "type": "function"
    },
    {
      "inputs": [
        {
          "internalType": "address",
          "name": "",
          "type": "address"
        },
        {
          "internalType": "uint256",
          "name": "",
          "type": "uint256"
        }
      ],
      "name": "addressVotesForUnvalidHata",
      "outputs": [
        {
          "internalType": "uint256",
          "name": "",
          "type": "uint256"
        }
      ],
      "stateMutability": "view",
      "type": "function"
    },
    {
      "inputs": [
        {
          "internalType": "address",
          "name": "",
          "type": "address"
        },
        {
          "internalType": "uint256",
          "name": "",
          "type": "uint256"
        }
      ],
      "name": "addressVotesForValidHata",
      "outputs": [
        {
          "internalType": "uint256",
          "name": "",
          "type": "uint256"
        }
      ],
      "stateMutability": "view",
      "type": "function"
    },
    {
      "inputs": [
        {
          "internalType": "uint256",
          "name": "",
          "type": "uint256"
        }
      ],
      "name": "allVotesOnHata",
      "outputs": [
        {
          "internalType": "uint256",
          "name": "",
          "type": "uint256"
        }
      ],
      "stateMutability": "view",
      "type": "function"
    },
    {
      "inputs": [
        {
          "internalType": "uint256",
          "name": "id",
          "type": "uint256"
        }
      ],
      "name": "allowToBuy",
      "outputs": [],
      "stateMutability": "nonpayable",
      "type": "function"
    },
    {
      "inputs": [
        {
          "internalType": "uint256",
          "name": "",
          "type": "uint256"
        }
      ],
      "name": "availableValidationProposals",
      "outputs": [
        {
          "internalType": "uint256",
          "name": "id",
          "type": "uint256"
        },
        {
          "internalType": "address payable",
          "name": "buyer",
          "type": "address"
        },
        {
          "internalType": "uint256",
          "name": "price",
          "type": "uint256"
        },
        {
          "internalType": "uint256",
          "name": "timestamp",
          "type": "uint256"
        },
        {
          "internalType": "bool",
          "name": "status",
          "type": "bool"
        },
        {
          "internalType": "bool",
          "name": "onValidation",
          "type": "bool"
        }
      ],
      "stateMutability": "view",
      "type": "function"
    },
    {
      "inputs": [
        {
          "internalType": "uint256",
          "name": "id",
          "type": "uint256"
        }
      ],
      "name": "checkForValidationResult",
      "outputs": [],
      "stateMutability": "nonpayable",
      "type": "function"
    },
    {
      "inputs": [
        {
          "internalType": "uint256",
          "name": "id",
          "type": "uint256"
        },
        {
          "internalType": "uint256",
          "name": "price",
          "type": "uint256"
        }
      ],
      "name": "createValidation",
      "outputs": [],
      "stateMutability": "nonpayable",
      "type": "function"
    },
    {
      "inputs": [],
      "name": "getAvailableProposals",
      "outputs": [
        {
          "components": [
            {
              "internalType": "uint256",
              "name": "id",
              "type": "uint256"
            },
            {
              "internalType": "address payable",
              "name": "buyer",
              "type": "address"
            },
            {
              "internalType": "uint256",
              "name": "price",
              "type": "uint256"
            },
            {
              "internalType": "uint256",
              "name": "timestamp",
              "type": "uint256"
            },
            {
              "internalType": "bool",
              "name": "status",
              "type": "bool"
            },
            {
              "internalType": "bool",
              "name": "onValidation",
              "type": "bool"
            }
          ],
          "internalType": "struct DaoContract.Validation[]",
          "name": "",
          "type": "tuple[]"
        }
      ],
      "stateMutability": "nonpayable",
      "type": "function"
    },
    {
      "inputs": [
        {
          "internalType": "address",
          "name": "_buyer",
          "type": "address"
        }
      ],
      "name": "getNFTsBuyerCanBuy",
      "outputs": [
        {
          "internalType": "uint256[]",
          "name": "",
          "type": "uint256[]"
        }
      ],
      "stateMutability": "view",
      "type": "function"
    },
    {
      "inputs": [
        {
          "internalType": "uint256",
          "name": "id",
          "type": "uint256"
        }
      ],
      "name": "isVotingEnded",
      "outputs": [
        {
          "internalType": "bool",
          "name": "isEnded",
          "type": "bool"
        }
      ],
      "stateMutability": "nonpayable",
      "type": "function"
    },
    {
      "inputs": [
        {
          "internalType": "uint256",
          "name": "id",
          "type": "uint256"
        }
      ],
      "name": "resetValidation",
      "outputs": [],
      "stateMutability": "nonpayable",
      "type": "function"
    },
    {
      "inputs": [
        {
          "internalType": "uint256",
          "name": "id",
          "type": "uint256"
        },
        {
          "internalType": "address",
          "name": "buyer",
          "type": "address"
        }
      ],
      "name": "setBuyer",
      "outputs": [],
      "stateMutability": "nonpayable",
      "type": "function"
    },
    {
      "inputs": [
        {
          "internalType": "uint256",
          "name": "id",
          "type": "uint256"
        },
        {
          "internalType": "bool",
          "name": "status",
          "type": "bool"
        }
      ],
      "name": "setOnValidation",
      "outputs": [],
      "stateMutability": "nonpayable",
      "type": "function"
    },
    {
      "inputs": [
        {
          "internalType": "uint256",
          "name": "id",
          "type": "uint256"
        },
        {
          "internalType": "uint256",
          "name": "price",
          "type": "uint256"
        }
      ],
      "name": "setPrice",
      "outputs": [],
      "stateMutability": "nonpayable",
      "type": "function"
    },
    {
      "inputs": [
        {
          "internalType": "uint256",
          "name": "id",
          "type": "uint256"
        }
      ],
      "name": "unvote",
      "outputs": [],
      "stateMutability": "nonpayable",
      "type": "function"
    },
    {
      "inputs": [
        {
          "internalType": "uint256",
          "name": "",
          "type": "uint256"
        }
      ],
      "name": "validationProposals",
      "outputs": [
        {
          "internalType": "uint256",
          "name": "id",
          "type": "uint256"
        },
        {
          "internalType": "address payable",
          "name": "buyer",
          "type": "address"
        },
        {
          "internalType": "uint256",
          "name": "price",
          "type": "uint256"
        },
        {
          "internalType": "uint256",
          "name": "timestamp",
          "type": "uint256"
        },
        {
          "internalType": "bool",
          "name": "status",
          "type": "bool"
        },
        {
          "internalType": "bool",
          "name": "onValidation",
          "type": "bool"
        }
      ],
      "stateMutability": "view",
      "type": "function"
    },
    {
      "inputs": [
        {
          "internalType": "uint256",
          "name": "id",
          "type": "uint256"
        }
      ],
      "name": "voteForUnvalid",
      "outputs": [],
      "stateMutability": "nonpayable",
      "type": "function"
    },
    {
      "inputs": [
        {
          "internalType": "uint256",
          "name": "id",
          "type": "uint256"
        }
      ],
      "name": "voteForValid",
      "outputs": [],
      "stateMutability": "nonpayable",
      "type": "function"
    },
    {
      "inputs": [
        {
          "internalType": "uint256",
          "name": "",
          "type": "uint256"
        },
        {
          "internalType": "uint256",
          "name": "",
          "type": "uint256"
        }
      ],
      "name": "votersOnHata",
      "outputs": [
        {
          "internalType": "address",
          "name": "",
          "type": "address"
        }
      ],
      "stateMutability": "view",
      "type": "function"
    },
    {
      "inputs": [
        {
          "internalType": "uint256",
          "name": "",
          "type": "uint256"
        }
      ],
      "name": "votesForUnvalidHata",
      "outputs": [
        {
          "internalType": "uint256",
          "name": "",
          "type": "uint256"
        }
      ],
      "stateMutability": "view",
      "type": "function"
    },
    {
      "inputs": [
        {
          "internalType": "uint256",
          "name": "",
          "type": "uint256"
        }
      ],
      "name": "votesForValidHata",
      "outputs": [
        {
          "internalType": "uint256",
          "name": "",
          "type": "uint256"
        }
      ],
      "stateMutability": "view",
      "type": "function"
    }
  ],
  "bytecode": "0x608060405262093a806007553480156200001857600080fd5b50604051620033ac380380620033ac83398181016040528101906200003e9190620000ef565b806000806101000a81548173ffffffffffffffffffffffffffffffffffffffff021916908373ffffffffffffffffffffffffffffffffffffffff1602179055505062000121565b600080fd5b600073ffffffffffffffffffffffffffffffffffffffff82169050919050565b6000620000b7826200008a565b9050919050565b620000c981620000aa565b8114620000d557600080fd5b50565b600081519050620000e981620000be565b92915050565b60006020828403121562000108576200010762000085565b5b60006200011884828501620000d8565b91505092915050565b61327b80620001316000396000f3fe608060405234801561001057600080fd5b506004361061014d5760003560e01c80637efbf59f116100c3578063c507c8f81161007c578063c507c8f8146103fd578063cf76341d14610419578063de667e7014610435578063ed69b9a314610451578063f7d975771461046f578063f9a360c91461048b5761014d565b80637efbf59f1461032d578063ab02657f14610349578063aecfc25214610365578063afd2a4d814610381578063baf6d7a4146103b1578063bf1f5a7c146103e15761014d565b806341e421c71161011557806341e421c71461022e578063424e9b2214610263578063452f5c8c1461029357806351ec4285146102c35780636e821cba146102df5780637758d49a1461030f5761014d565b806308b31c7a146101525780630f754c181461016e57806319856e441461019e578063377378f4146101ce5780633aab4d59146101fe575b600080fd5b61016c60048036038101906101679190612656565b6104c0565b005b610188600480360381019061018391906126e1565b6105ea565b6040516101959190612730565b60405180910390f35b6101b860048036038101906101b39190612656565b61060f565b6040516101c59190612730565b60405180910390f35b6101e860048036038101906101e3919061274b565b610627565b6040516101f5919061279a565b60405180910390f35b610218600480360381019061021391906127b5565b610675565b60405161022591906128a0565b60405180910390f35b61024860048036038101906102439190612656565b61070c565b60405161025a969594939291906128fe565b60405180910390f35b61027d600480360381019061027891906126e1565b610792565b60405161028a9190612730565b60405180910390f35b6102ad60048036038101906102a89190612656565b6107b7565b6040516102ba919061295f565b60405180910390f35b6102dd60048036038101906102d89190612656565b610802565b005b6102f960048036038101906102f49190612656565b610aec565b6040516103069190612730565b60405180910390f35b610317610b04565b60405161032491906129d9565b60405180910390f35b61034760048036038101906103429190612656565b610b28565b005b610363600480360381019061035e9190612656565b610f42565b005b61037f600480360381019061037a9190612a20565b611468565b005b61039b60048036038101906103969190612656565b6114a9565b6040516103a89190612730565b60405180910390f35b6103cb60048036038101906103c691906126e1565b6114c1565b6040516103d89190612730565b60405180910390f35b6103fb60048036038101906103f69190612656565b6114f2565b005b61041760048036038101906104129190612656565b61190c565b005b610433600480360381019061042e919061274b565b611d25565b005b61044f600480360381019061044a9190612a60565b61215c565b005b6104596121c4565b6040516104669190612be8565b60405180910390f35b6104896004803603810190610484919061274b565b612567565b005b6104a560048036038101906104a09190612656565b612595565b6040516104b7969594939291906128fe565b60405180910390f35b60086000600983815481106104d8576104d7612c0a565b5b906000526020600020906005020160010160009054906101000a900473ffffffffffffffffffffffffffffffffffffffff1673ffffffffffffffffffffffffffffffffffffffff1673ffffffffffffffffffffffffffffffffffffffff16815260200190815260200160002081908060018154018082558091505060019003906000526020600020016000909190919091505560006009828154811061058157610580612c0a565b5b906000526020600020906005020160040160016101000a81548160ff0219169083151502179055506001600982815481106105bf576105be612c0a565b5b906000526020600020906005020160040160006101000a81548160ff02191690831515021790555050565b6001602052816000526040600020602052806000526040600020600091509150505481565b60056020528060005260406000206000915090505481565b6003602052816000526040600020818154811061064357600080fd5b906000526020600020016000915091509054906101000a900473ffffffffffffffffffffffffffffffffffffffff1681565b6060600860008373ffffffffffffffffffffffffffffffffffffffff1673ffffffffffffffffffffffffffffffffffffffff16815260200190815260200160002080548060200260200160405190810160405280929190818152602001828054801561070057602002820191906000526020600020905b8154815260200190600101908083116106ec575b50505050509050919050565b600a818154811061071c57600080fd5b90600052602060002090600502016000915090508060000154908060010160009054906101000a900473ffffffffffffffffffffffffffffffffffffffff16908060020154908060030154908060040160009054906101000a900460ff16908060040160019054906101000a900460ff16905086565b6002602052816000526040600020602052806000526040600020600091509150505481565b600042600983815481106107ce576107cd612c0a565b5b90600052602060002090600502016003015410156107f857600190506107f38261190c565b6107fd565b600090505b919050565b600160008054906101000a900473ffffffffffffffffffffffffffffffffffffffff1673ffffffffffffffffffffffffffffffffffffffff1662fdd58e3360006040518363ffffffff1660e01b815260040161085f929190612c74565b602060405180830381865afa15801561087c573d6000803e3d6000fd5b505050506040513d601f19601f820116820180604052508101906108a09190612cb2565b10156108e1576040517f08c379a00000000000000000000000000000000000000000000000000000000081526004016108d890612d3c565b60405180910390fd5b60018060003373ffffffffffffffffffffffffffffffffffffffff1673ffffffffffffffffffffffffffffffffffffffff16815260200190815260200160002060008381526020019081526020016000205414610973576040517f08c379a000000000000000000000000000000000000000000000000000000000815260040161096a90612da8565b60405180910390fd5b600115156009828154811061098b5761098a612c0a565b5b906000526020600020906005020160040160019054906101000a900460ff161515146109ec576040517f08c379a00000000000000000000000000000000000000000000000000000000081526004016109e390612e3a565b60405180910390fd5b600060098281548110610a0257610a01612c0a565b5b906000526020600020906005020160030154905080421115610a59576040517f08c379a0000000000000000000000000000000000000000000000000000000008152600401610a5090612ea6565b60405180910390fd5b600160003373ffffffffffffffffffffffffffffffffffffffff1673ffffffffffffffffffffffffffffffffffffffff16815260200190815260200160002060008381526020019081526020016000206000815480929190610aba90612ef5565b9190505550600460008381526020019081526020016000206000815480929190610ae390612ef5565b91905055505050565b60046020528060005260406000206000915090505481565b60008054906101000a900473ffffffffffffffffffffffffffffffffffffffff1681565b600160008054906101000a900473ffffffffffffffffffffffffffffffffffffffff1673ffffffffffffffffffffffffffffffffffffffff1662fdd58e3360006040518363ffffffff1660e01b8152600401610b85929190612c74565b602060405180830381865afa158015610ba2573d6000803e3d6000fd5b505050506040513d601f19601f82011682018060405250810190610bc69190612cb2565b1015610c07576040517f08c379a0000000000000000000000000000000000000000000000000000000008152600401610bfe90612d3c565b60405180910390fd5b60018060003373ffffffffffffffffffffffffffffffffffffffff1673ffffffffffffffffffffffffffffffffffffffff16815260200190815260200160002060008381526020019081526020016000205410610c99576040517f08c379a0000000000000000000000000000000000000000000000000000000008152600401610c9090612f6a565b60405180910390fd5b6001600260003373ffffffffffffffffffffffffffffffffffffffff1673ffffffffffffffffffffffffffffffffffffffff16815260200190815260200160002060008381526020019081526020016000205410610d2c576040517f08c379a0000000000000000000000000000000000000000000000000000000008152600401610d2390612f6a565b60405180910390fd5b6001151560098281548110610d4457610d43612c0a565b5b906000526020600020906005020160040160019054906101000a900460ff16151514610da5576040517f08c379a0000000000000000000000000000000000000000000000000000000008152600401610d9c90612e3a565b60405180910390fd5b600060098281548110610dbb57610dba612c0a565b5b906000526020600020906005020160030154905080421115610e12576040517f08c379a0000000000000000000000000000000000000000000000000000000008152600401610e0990612ea6565b60405180910390fd5b60036000838152602001908152602001600020339080600181540180825580915050600190039060005260206000200160009091909190916101000a81548173ffffffffffffffffffffffffffffffffffffffff021916908373ffffffffffffffffffffffffffffffffffffffff160217905550600560008381526020019081526020016000206000815480929190610eaa90612f8a565b9190505550600260003373ffffffffffffffffffffffffffffffffffffffff1673ffffffffffffffffffffffffffffffffffffffff16815260200190815260200160002060008381526020019081526020016000206000815480929190610f1090612f8a565b9190505550600660008381526020019081526020016000206000815480929190610f3990612f8a565b91905055505050565b6000151560098281548110610f5a57610f59612c0a565b5b906000526020600020906005020160040160019054906101000a900460ff16151514610fbb576040517f08c379a0000000000000000000000000000000000000000000000000000000008152600401610fb290613044565b60405180910390fd5b60006008600060098481548110610fd557610fd4612c0a565b5b906000526020600020906005020160010160009054906101000a900473ffffffffffffffffffffffffffffffffffffffff1673ffffffffffffffffffffffffffffffffffffffff1673ffffffffffffffffffffffffffffffffffffffff168152602001908152602001600020805490509050600860006009848154811061105f5761105e612c0a565b5b906000526020600020906005020160010160009054906101000a900473ffffffffffffffffffffffffffffffffffffffff1673ffffffffffffffffffffffffffffffffffffffff1673ffffffffffffffffffffffffffffffffffffffff1681526020019081526020016000206001826110d89190613064565b815481106110e9576110e8612c0a565b5b9060005260206000200154600860006009858154811061110c5761110b612c0a565b5b906000526020600020906005020160010160009054906101000a900473ffffffffffffffffffffffffffffffffffffffff1673ffffffffffffffffffffffffffffffffffffffff1673ffffffffffffffffffffffffffffffffffffffff168152602001908152602001600020838154811061118a57611189612c0a565b5b906000526020600020018190555060086000600984815481106111b0576111af612c0a565b5b906000526020600020906005020160010160009054906101000a900473ffffffffffffffffffffffffffffffffffffffff1673ffffffffffffffffffffffffffffffffffffffff1673ffffffffffffffffffffffffffffffffffffffff16815260200190815260200160002080548061122c5761122b613098565b5b600190038181906000526020600020016000905590556040518060c00160405280838152602001600073ffffffffffffffffffffffffffffffffffffffff168152602001600081526020016000815260200160001515815260200160001515815250600983815481106112a2576112a1612c0a565b5b90600052602060002090600502016000820151816000015560208201518160010160006101000a81548173ffffffffffffffffffffffffffffffffffffffff021916908373ffffffffffffffffffffffffffffffffffffffff160217905550604082015181600201556060820151816003015560808201518160040160006101000a81548160ff02191690831515021790555060a08201518160040160016101000a81548160ff0219169083151502179055509050506000600660008481526020019081526020016000208190555060005b600360008481526020019081526020016000208054905081101561144a576000600160006003600087815260200190815260200160002084815481106113bd576113bc612c0a565b5b9060005260206000200160009054906101000a900473ffffffffffffffffffffffffffffffffffffffff1673ffffffffffffffffffffffffffffffffffffffff1673ffffffffffffffffffffffffffffffffffffffff168152602001908152602001600020600085815260200190815260200160002081905550808061144290612f8a565b915050611374565b50600060046000848152602001908152602001600020819055505050565b806009838154811061147d5761147c612c0a565b5b906000526020600020906005020160040160016101000a81548160ff0219169083151502179055505050565b60066020528060005260406000206000915090505481565b600860205281600052604060002081815481106114dd57600080fd5b90600052602060002001600091509150505481565b600160008054906101000a900473ffffffffffffffffffffffffffffffffffffffff1673ffffffffffffffffffffffffffffffffffffffff1662fdd58e3360006040518363ffffffff1660e01b815260040161154f929190612c74565b602060405180830381865afa15801561156c573d6000803e3d6000fd5b505050506040513d601f19601f820116820180604052508101906115909190612cb2565b10156115d1576040517f08c379a00000000000000000000000000000000000000000000000000000000081526004016115c890612d3c565b60405180910390fd5b60018060003373ffffffffffffffffffffffffffffffffffffffff1673ffffffffffffffffffffffffffffffffffffffff16815260200190815260200160002060008381526020019081526020016000205410611663576040517f08c379a000000000000000000000000000000000000000000000000000000000815260040161165a90612f6a565b60405180910390fd5b6001600260003373ffffffffffffffffffffffffffffffffffffffff1673ffffffffffffffffffffffffffffffffffffffff168152602001908152602001600020600083815260200190815260200160002054106116f6576040517f08c379a00000000000000000000000000000000000000000000000000000000081526004016116ed90612f6a565b60405180910390fd5b600115156009828154811061170e5761170d612c0a565b5b906000526020600020906005020160040160019054906101000a900460ff1615151461176f576040517f08c379a000000000000000000000000000000000000000000000000000000000815260040161176690612e3a565b60405180910390fd5b60006009828154811061178557611784612c0a565b5b9060005260206000209060050201600301549050804211156117dc576040517f08c379a00000000000000000000000000000000000000000000000000000000081526004016117d390612ea6565b60405180910390fd5b60036000838152602001908152602001600020339080600181540180825580915050600190039060005260206000200160009091909190916101000a81548173ffffffffffffffffffffffffffffffffffffffff021916908373ffffffffffffffffffffffffffffffffffffffff160217905550600160003373ffffffffffffffffffffffffffffffffffffffff1673ffffffffffffffffffffffffffffffffffffffff168152602001908152602001600020600083815260200190815260200160002060008154809291906118b190612f8a565b91905055506004600083815260200190815260200160002060008154809291906118da90612f8a565b919050555060066000838152602001908152602001600020600081548092919061190390612f8a565b91905055505050565b6000600860006009848154811061192657611925612c0a565b5b906000526020600020906005020160010160009054906101000a900473ffffffffffffffffffffffffffffffffffffffff1673ffffffffffffffffffffffffffffffffffffffff1673ffffffffffffffffffffffffffffffffffffffff1681526020019081526020016000208054905090506000808210611a785760005b82811015611a76578360086000600987815481106119c5576119c4612c0a565b5b906000526020600020906005020160010160009054906101000a900473ffffffffffffffffffffffffffffffffffffffff1673ffffffffffffffffffffffffffffffffffffffff1673ffffffffffffffffffffffffffffffffffffffff1681526020019081526020016000208281548110611a4357611a42612c0a565b5b906000526020600020015403611a6357600182611a6091906130c7565b91505b8080611a6e90612f8a565b9150506119a4565b505b60018110611abb576040517f08c379a0000000000000000000000000000000000000000000000000000000008152600401611ab29061316d565b60405180910390fd5b4260098481548110611ad057611acf612c0a565b5b9060005260206000209060050201600301541015611ce15760008054906101000a900473ffffffffffffffffffffffffffffffffffffffff1673ffffffffffffffffffffffffffffffffffffffff16635ee6ed4b6040518163ffffffff1660e01b8152600401602060405180830381865afa158015611b53573d6000803e3d6000fd5b505050506040513d601f19601f82011682018060405250810190611b779190612cb2565b600660008581526020019081526020016000205410611c56576005600084815260200190815260200160002054600460008581526020019081526020016000205410611bcb57611bc6836104c0565b611c51565b600060098481548110611be157611be0612c0a565b5b906000526020600020906005020160040160016101000a81548160ff021916908315150217905550600060098481548110611c1f57611c1e612c0a565b5b906000526020600020906005020160040160006101000a81548160ff021916908315150217905550611c5083610f42565b5b611cdc565b600060098481548110611c6c57611c6b612c0a565b5b906000526020600020906005020160040160016101000a81548160ff021916908315150217905550600060098481548110611caa57611ca9612c0a565b5b906000526020600020906005020160040160006101000a81548160ff021916908315150217905550611cdb83610f42565b5b611d20565b600060098481548110611cf757611cf6612c0a565b5b906000526020600020906005020160040160016101000a81548160ff0219169083151502179055505b505050565b600060098054905090506000808210611d945760005b82811015611d92578460098681548110611d5857611d57612c0a565b5b90600052602060002090600502016000015403611d7f57600182611d7c91906130c7565b91505b8080611d8a90612f8a565b915050611d3b565b505b60018110611ee2573360098581548110611db157611db0612c0a565b5b906000526020600020906005020160010160006101000a81548173ffffffffffffffffffffffffffffffffffffffff021916908373ffffffffffffffffffffffffffffffffffffffff1602179055508260098581548110611e1557611e14612c0a565b5b90600052602060002090600502016002018190555060075442611e3891906130c7565b60098581548110611e4c57611e4b612c0a565b5b906000526020600020906005020160030181905550600060098581548110611e7757611e76612c0a565b5b906000526020600020906005020160040160006101000a81548160ff021916908315150217905550600160098581548110611eb557611eb4612c0a565b5b906000526020600020906005020160040160016101000a81548160ff021916908315150217905550612156565b6000810361201d5760006040518060c001604052808681526020013373ffffffffffffffffffffffffffffffffffffffff16815260200185815260200160075442611f2d91906130c7565b815260200160001515815260200160011515815250905060098190806001815401808255809150506001900390600052602060002090600502016000909190919091506000820151816000015560208201518160010160006101000a81548173ffffffffffffffffffffffffffffffffffffffff021916908373ffffffffffffffffffffffffffffffffffffffff160217905550604082015181600201556060820151816003015560808201518160040160006101000a81548160ff02191690831515021790555060a08201518160040160016101000a81548160ff021916908315150217905550505050612155565b600181101580156120a05750600073ffffffffffffffffffffffffffffffffffffffff166009858154811061205557612054612c0a565b5b906000526020600020906005020160010160009054906101000a900473ffffffffffffffffffffffffffffffffffffffff1673ffffffffffffffffffffffffffffffffffffffff1614155b80156120d257506000600985815481106120bd576120bc612c0a565b5b90600052602060002090600502016003015414155b8015612114575060011515600985815481106120f1576120f0612c0a565b5b906000526020600020906005020160040160019054906101000a900460ff161515145b15612154576040517f08c379a000000000000000000000000000000000000000000000000000000000815260040161214b90613225565b60405180910390fd5b5b5b50505050565b806009838154811061217157612170612c0a565b5b906000526020600020906005020160010160006101000a81548173ffffffffffffffffffffffffffffffffffffffff021916908373ffffffffffffffffffffffffffffffffffffffff1602179055505050565b606060005b60098054905081101561245f5760011515600982815481106121ee576121ed612c0a565b5b906000526020600020906005020160040160019054906101000a900460ff1615150361244c5760006040518060c001604052806009848154811061223557612234612c0a565b5b9060005260206000209060050201600001548152602001600984815481106122605761225f612c0a565b5b906000526020600020906005020160010160009054906101000a900473ffffffffffffffffffffffffffffffffffffffff1673ffffffffffffffffffffffffffffffffffffffff168152602001600984815481106122c1576122c0612c0a565b5b9060005260206000209060050201600201548152602001600984815481106122ec576122eb612c0a565b5b90600052602060002090600502016003015481526020016009848154811061231757612316612c0a565b5b906000526020600020906005020160040160009054906101000a900460ff16151581526020016009848154811061235157612350612c0a565b5b906000526020600020906005020160040160019054906101000a900460ff1615158152509050600a8190806001815401808255809150506001900390600052602060002090600502016000909190919091506000820151816000015560208201518160010160006101000a81548173ffffffffffffffffffffffffffffffffffffffff021916908373ffffffffffffffffffffffffffffffffffffffff160217905550604082015181600201556060820151816003015560808201518160040160006101000a81548160ff02191690831515021790555060a08201518160040160016101000a81548160ff0219169083151502179055505050505b808061245790612f8a565b9150506121c9565b50600a805480602002602001604051908101604052809291908181526020016000905b8282101561255e57838290600052602060002090600502016040518060c0016040529081600082015481526020016001820160009054906101000a900473ffffffffffffffffffffffffffffffffffffffff1673ffffffffffffffffffffffffffffffffffffffff1673ffffffffffffffffffffffffffffffffffffffff16815260200160028201548152602001600382015481526020016004820160009054906101000a900460ff161515151581526020016004820160019054906101000a900460ff16151515158152505081526020019060010190612482565b50505050905090565b806009838154811061257c5761257b612c0a565b5b9060005260206000209060050201600201819055505050565b600981815481106125a557600080fd5b90600052602060002090600502016000915090508060000154908060010160009054906101000a900473ffffffffffffffffffffffffffffffffffffffff16908060020154908060030154908060040160009054906101000a900460ff16908060040160019054906101000a900460ff16905086565b600080fd5b6000819050919050565b61263381612620565b811461263e57600080fd5b50565b6000813590506126508161262a565b92915050565b60006020828403121561266c5761266b61261b565b5b600061267a84828501612641565b91505092915050565b600073ffffffffffffffffffffffffffffffffffffffff82169050919050565b60006126ae82612683565b9050919050565b6126be816126a3565b81146126c957600080fd5b50565b6000813590506126db816126b5565b92915050565b600080604083850312156126f8576126f761261b565b5b6000612706858286016126cc565b925050602061271785828601612641565b9150509250929050565b61272a81612620565b82525050565b60006020820190506127456000830184612721565b92915050565b600080604083850312156127625761276161261b565b5b600061277085828601612641565b925050602061278185828601612641565b9150509250929050565b612794816126a3565b82525050565b60006020820190506127af600083018461278b565b92915050565b6000602082840312156127cb576127ca61261b565b5b60006127d9848285016126cc565b91505092915050565b600081519050919050565b600082825260208201905092915050565b6000819050602082019050919050565b61281781612620565b82525050565b6000612829838361280e565b60208301905092915050565b6000602082019050919050565b600061284d826127e2565b61285781856127ed565b9350612862836127fe565b8060005b8381101561289357815161287a888261281d565b975061288583612835565b925050600181019050612866565b5085935050505092915050565b600060208201905081810360008301526128ba8184612842565b905092915050565b60006128cd82612683565b9050919050565b6128dd816128c2565b82525050565b60008115159050919050565b6128f8816128e3565b82525050565b600060c0820190506129136000830189612721565b61292060208301886128d4565b61292d6040830187612721565b61293a6060830186612721565b61294760808301856128ef565b61295460a08301846128ef565b979650505050505050565b600060208201905061297460008301846128ef565b92915050565b6000819050919050565b600061299f61299a61299584612683565b61297a565b612683565b9050919050565b60006129b182612984565b9050919050565b60006129c3826129a6565b9050919050565b6129d3816129b8565b82525050565b60006020820190506129ee60008301846129ca565b92915050565b6129fd816128e3565b8114612a0857600080fd5b50565b600081359050612a1a816129f4565b92915050565b60008060408385031215612a3757612a3661261b565b5b6000612a4585828601612641565b9250506020612a5685828601612a0b565b9150509250929050565b60008060408385031215612a7757612a7661261b565b5b6000612a8585828601612641565b9250506020612a96858286016126cc565b9150509250929050565b600081519050919050565b600082825260208201905092915050565b6000819050602082019050919050565b612ad5816128c2565b82525050565b612ae4816128e3565b82525050565b60c082016000820151612b00600085018261280e565b506020820151612b136020850182612acc565b506040820151612b26604085018261280e565b506060820151612b39606085018261280e565b506080820151612b4c6080850182612adb565b5060a0820151612b5f60a0850182612adb565b50505050565b6000612b718383612aea565b60c08301905092915050565b6000602082019050919050565b6000612b9582612aa0565b612b9f8185612aab565b9350612baa83612abc565b8060005b83811015612bdb578151612bc28882612b65565b9750612bcd83612b7d565b925050600181019050612bae565b5085935050505092915050565b60006020820190508181036000830152612c028184612b8a565b905092915050565b7f4e487b7100000000000000000000000000000000000000000000000000000000600052603260045260246000fd5b6000819050919050565b6000612c5e612c59612c5484612c39565b61297a565b612620565b9050919050565b612c6e81612c43565b82525050565b6000604082019050612c89600083018561278b565b612c966020830184612c65565b9392505050565b600081519050612cac8161262a565b92915050565b600060208284031215612cc857612cc761261b565b5b6000612cd684828501612c9d565b91505092915050565b600082825260208201905092915050565b7f446f6e2774206861766520476f76546f6b656e21000000000000000000000000600082015250565b6000612d26601483612cdf565b9150612d3182612cf0565b602082019050919050565b60006020820190508181036000830152612d5581612d19565b9050919050565b7f596f75206469646e277420766f746520666f7220746861742048617461210000600082015250565b6000612d92601e83612cdf565b9150612d9d82612d5c565b602082019050919050565b60006020820190508181036000830152612dc181612d85565b9050919050565b7f74686973206f626a656374206973206e6f742063757272656e746c79206f6e2060008201527f76616c69646174696f6e21000000000000000000000000000000000000000000602082015250565b6000612e24602b83612cdf565b9150612e2f82612dc8565b604082019050919050565b60006020820190508181036000830152612e5381612e17565b9050919050565b7f566f74696e6720706572696f642068617320656e646564000000000000000000600082015250565b6000612e90601783612cdf565b9150612e9b82612e5a565b602082019050919050565b60006020820190508181036000830152612ebf81612e83565b9050919050565b7f4e487b7100000000000000000000000000000000000000000000000000000000600052601160045260246000fd5b6000612f0082612620565b915060008203612f1357612f12612ec6565b5b600182039050919050565b7f63616e277420766f7465206d6f7265207468616e206f6e636521000000000000600082015250565b6000612f54601a83612cdf565b9150612f5f82612f1e565b602082019050919050565b60006020820190508181036000830152612f8381612f47565b9050919050565b6000612f9582612620565b91507fffffffffffffffffffffffffffffffffffffffffffffffffffffffffffffffff8203612fc757612fc6612ec6565b5b600182019050919050565b7f4974656d2063616e277420626520726573657420696e2074686973206d6f6d6560008201527f6e74000000000000000000000000000000000000000000000000000000000000602082015250565b600061302e602283612cdf565b915061303982612fd2565b604082019050919050565b6000602082019050818103600083015261305d81613021565b9050919050565b600061306f82612620565b915061307a83612620565b925082820390508181111561309257613091612ec6565b5b92915050565b7f4e487b7100000000000000000000000000000000000000000000000000000000600052603160045260246000fd5b60006130d282612620565b91506130dd83612620565b92508282019050808211156130f5576130f4612ec6565b5b92915050565b7f4e465420616c726561647920636865636b65642e20427579657220616c72656160008201527f647920616c6c6f77656420746f20627579000000000000000000000000000000602082015250565b6000613157603183612cdf565b9150613162826130fb565b604082019050919050565b600060208201905081810360008301526131868161314a565b9050919050565b7f596f752063616e27742073656e642070726f706f73616c20746f2076616c696460008201527f6174696f6e206265636175736520697420697320616c72656164792073656e7460208201527f206f6e2076616c69646174696f6e20627920616e6f7468657220627579657221604082015250565b600061320f606083612cdf565b915061321a8261318d565b606082019050919050565b6000602082019050818103600083015261323e81613202565b905091905056fea2646970667358221220d5676cef918cab8d7d56e642f410b24e480351c6a33d59b8113516b27aca187464736f6c63430008120033",
  "linkReferences": {},
  "deployedLinkReferences": {}
}